{
  "contractName": "FastCoin",
  "abi": [
    {
      "inputs": [],
      "stateMutability": "nonpayable",
      "type": "constructor"
    },
    {
      "anonymous": false,
      "inputs": [
        {
          "indexed": true,
          "internalType": "address",
          "name": "owner",
          "type": "address"
        },
        {
          "indexed": true,
          "internalType": "address",
          "name": "spender",
          "type": "address"
        },
        {
          "indexed": false,
          "internalType": "uint256",
          "name": "value",
          "type": "uint256"
        }
      ],
      "name": "Approval",
      "type": "event"
    },
    {
      "anonymous": false,
      "inputs": [
        {
          "indexed": true,
          "internalType": "address",
          "name": "from",
          "type": "address"
        },
        {
          "indexed": true,
          "internalType": "address",
          "name": "to",
          "type": "address"
        },
        {
          "indexed": false,
          "internalType": "uint256",
          "name": "value",
          "type": "uint256"
        }
      ],
      "name": "Transfer",
      "type": "event"
    },
    {
      "inputs": [],
      "name": "admin",
      "outputs": [
        {
          "internalType": "address",
          "name": "",
          "type": "address"
        }
      ],
      "stateMutability": "view",
      "type": "function",
      "constant": true
    },
    {
      "inputs": [
        {
          "internalType": "address",
          "name": "owner",
          "type": "address"
        },
        {
          "internalType": "address",
          "name": "spender",
          "type": "address"
        }
      ],
      "name": "allowance",
      "outputs": [
        {
          "internalType": "uint256",
          "name": "",
          "type": "uint256"
        }
      ],
      "stateMutability": "view",
      "type": "function",
      "constant": true
    },
    {
      "inputs": [
        {
          "internalType": "address",
          "name": "account",
          "type": "address"
        }
      ],
      "name": "balanceOf",
      "outputs": [
        {
          "internalType": "uint256",
          "name": "",
          "type": "uint256"
        }
      ],
      "stateMutability": "view",
      "type": "function",
      "constant": true
    },
    {
      "inputs": [],
      "name": "cafeteria",
      "outputs": [
        {
          "internalType": "address",
          "name": "",
          "type": "address"
        }
      ],
      "stateMutability": "view",
      "type": "function",
      "constant": true
    },
    {
      "inputs": [],
      "name": "decimals",
      "outputs": [
        {
          "internalType": "uint8",
          "name": "",
          "type": "uint8"
        }
      ],
      "stateMutability": "view",
      "type": "function",
      "constant": true
    },
    {
      "inputs": [
        {
          "internalType": "address",
          "name": "spender",
          "type": "address"
        },
        {
          "internalType": "uint256",
          "name": "subtractedValue",
          "type": "uint256"
        }
      ],
      "name": "decreaseAllowance",
      "outputs": [
        {
          "internalType": "bool",
          "name": "",
          "type": "bool"
        }
      ],
      "stateMutability": "nonpayable",
      "type": "function"
    },
    {
      "inputs": [
        {
          "internalType": "address",
          "name": "spender",
          "type": "address"
        },
        {
          "internalType": "uint256",
          "name": "addedValue",
          "type": "uint256"
        }
      ],
      "name": "increaseAllowance",
      "outputs": [
        {
          "internalType": "bool",
          "name": "",
          "type": "bool"
        }
      ],
      "stateMutability": "nonpayable",
      "type": "function"
    },
    {
      "inputs": [],
      "name": "name",
      "outputs": [
        {
          "internalType": "string",
          "name": "",
          "type": "string"
        }
      ],
      "stateMutability": "view",
      "type": "function",
      "constant": true
    },
    {
      "inputs": [],
      "name": "symbol",
      "outputs": [
        {
          "internalType": "string",
          "name": "",
          "type": "string"
        }
      ],
      "stateMutability": "view",
      "type": "function",
      "constant": true
    },
    {
      "inputs": [],
      "name": "totalSupply",
      "outputs": [
        {
          "internalType": "uint256",
          "name": "",
          "type": "uint256"
        }
      ],
      "stateMutability": "view",
      "type": "function",
      "constant": true
    },
    {
      "inputs": [
        {
          "internalType": "address",
          "name": "to",
          "type": "address"
        },
        {
          "internalType": "uint256",
          "name": "amount",
          "type": "uint256"
        }
      ],
      "name": "transfer",
      "outputs": [
        {
          "internalType": "bool",
          "name": "",
          "type": "bool"
        }
      ],
      "stateMutability": "nonpayable",
      "type": "function"
    },
    {
      "inputs": [
        {
          "internalType": "address",
          "name": "from",
          "type": "address"
        },
        {
          "internalType": "address",
          "name": "to",
          "type": "address"
        },
        {
          "internalType": "uint256",
          "name": "amount",
          "type": "uint256"
        }
      ],
      "name": "transferFrom",
      "outputs": [
        {
          "internalType": "bool",
          "name": "",
          "type": "bool"
        }
      ],
      "stateMutability": "nonpayable",
      "type": "function"
    },
    {
      "inputs": [
        {
          "internalType": "address",
          "name": "_cafeteria",
          "type": "address"
        }
      ],
      "name": "setCafeteria",
      "outputs": [],
      "stateMutability": "nonpayable",
      "type": "function"
    },
    {
      "inputs": [
        {
          "internalType": "address",
          "name": "to",
          "type": "address"
        },
        {
          "internalType": "uint256",
          "name": "amount",
          "type": "uint256"
        }
      ],
      "name": "mint",
      "outputs": [],
      "stateMutability": "nonpayable",
      "type": "function"
    },
    {
      "inputs": [
        {
          "internalType": "uint256",
          "name": "amount",
          "type": "uint256"
        }
      ],
      "name": "burn",
      "outputs": [],
      "stateMutability": "nonpayable",
      "type": "function"
    },
    {
      "inputs": [
        {
          "internalType": "uint256",
          "name": "amount",
          "type": "uint256"
        }
      ],
      "name": "payForOrder",
      "outputs": [],
      "stateMutability": "nonpayable",
      "type": "function"
    },
    {
      "inputs": [
        {
          "internalType": "address",
          "name": "customer",
          "type": "address"
        },
        {
          "internalType": "uint256",
          "name": "amount",
          "type": "uint256"
        }
      ],
      "name": "refundOrder",
      "outputs": [],
      "stateMutability": "nonpayable",
      "type": "function"
    },
    {
      "inputs": [
        {
          "internalType": "address",
          "name": "spender",
          "type": "address"
        },
        {
          "internalType": "uint256",
          "name": "amount",
          "type": "uint256"
        }
      ],
      "name": "approve",
      "outputs": [
        {
          "internalType": "bool",
          "name": "",
          "type": "bool"
        }
      ],
      "stateMutability": "nonpayable",
      "type": "function"
    }
  ],
  "bytecode": "0x6080604052600680546001600160a01b03191673f0d1611c0c7fbb61f72f5fbec835a71e59c5edbf1790553480156200003757600080fd5b50604051806040016040528060088152602001672330b9ba21b7b4b760c11b815250604051806040016040528060038152602001621194d560ea1b81525081600390805190602001906200008d929190620001d8565b508051620000a3906004906020840190620001d8565b5050600580546001600160a01b0319908116339081179092556006805490911673f0d1611c0c7fbb61f72f5fbec835a71e59c5edbf1790556200010c9150620000ea601290565b620000f790600a620002e2565b6200010690620f4240620003b0565b62000112565b62000425565b6001600160a01b0382166200016d5760405162461bcd60e51b815260206004820152601f60248201527f45524332303a206d696e7420746f20746865207a65726f206164647265737300604482015260640160405180910390fd5b80600260008282546200018191906200027e565b90915550506001600160a01b038216600081815260208181526040808320805486019055518481527fddf252ad1be2c89b69c2b068fc378daa952ba7f163c4a11628f55a4df523b3ef910160405180910390a35050565b828054620001e690620003d2565b90600052602060002090601f0160209004810192826200020a576000855562000255565b82601f106200022557805160ff191683800117855562000255565b8280016001018555821562000255579182015b828111156200025557825182559160200191906001019062000238565b506200026392915062000267565b5090565b5b8082111562000263576000815560010162000268565b600082198211156200029457620002946200040f565b500190565b600181815b80851115620002da578160001904821115620002be57620002be6200040f565b80851615620002cc57918102915b93841c93908002906200029e565b509250929050565b6000620002f360ff841683620002fa565b9392505050565b6000826200030b57506001620003aa565b816200031a57506000620003aa565b81600181146200033357600281146200033e576200035e565b6001915050620003aa565b60ff8411156200035257620003526200040f565b50506001821b620003aa565b5060208310610133831016604e8410600b841016171562000383575081810a620003aa565b6200038f838362000299565b8060001904821115620003a657620003a66200040f565b0290505b92915050565b6000816000190483118215151615620003cd57620003cd6200040f565b500290565b600181811c90821680620003e757607f821691505b602082108114156200040957634e487b7160e01b600052602260045260246000fd5b50919050565b634e487b7160e01b600052601160045260246000fd5b610d1380620004356000396000f3fe608060405234801561001057600080fd5b50600436106101165760003560e01c806342966c68116100a2578063a457c2d711610071578063a457c2d71461026a578063a9059cbb1461027d578063d9c2dcee14610290578063dd62ed3e146102a3578063f851a440146102b657600080fd5b806342966c68146101f657806370a082311461020957806382412e101461023257806395d89b411461026257600080fd5b806323b872dd116100e957806323b872dd146101835780632f3e31bb14610196578063313ce567146101c157806339509351146101d057806340c10f19146101e357600080fd5b806306fdde031461011b578063095ea7b31461013957806318160ddd1461015c5780631de091b61461016e575b600080fd5b6101236102c9565b6040516101309190610be5565b60405180910390f35b61014c610147366004610ba2565b61035b565b6040519015158152602001610130565b6002545b604051908152602001610130565b61018161017c366004610ba2565b6103f0565b005b61014c610191366004610b66565b610474565b6006546101a9906001600160a01b031681565b6040516001600160a01b039091168152602001610130565b60405160128152602001610130565b61014c6101de366004610ba2565b610498565b6101816101f1366004610ba2565b6104c4565b610181610204366004610bcc565b6104ce565b610160610217366004610b11565b6001600160a01b031660009081526020819052604090205490565b610181610240366004610b11565b600680546001600160a01b0319166001600160a01b0392909216919091179055565b6101236104db565b61014c610278366004610ba2565b6104ea565b61014c61028b366004610ba2565b610565565b61018161029e366004610bcc565b610573565b6101606102b1366004610b33565b6105e1565b6005546101a9906001600160a01b031681565b6060600380546102d890610ca2565b80601f016020809104026020016040519081016040528092919081815260200182805461030490610ca2565b80156103515780601f1061032657610100808354040283529160200191610351565b820191906000526020600020905b81548152906001019060200180831161033457829003601f168201915b5050505050905090565b60006001600160a01b03831661038c5760405162461bcd60e51b815260040161038390610c3a565b60405180910390fd5b3360008181526007602090815260408083206001600160a01b03881680855290835292819020869055518581529192917f8c5be1e5ebec7d5bd14f71427d1e84f3dd0314c0f7b2291e5b200ac8c7c3b925910160405180910390a350600192915050565b6006546001600160a01b031633146104595760405162461bcd60e51b815260206004820152602660248201527f4f6e6c79206361666574657269612063616e20706572666f726d20746869732060448201526530b1ba34b7b760d11b6064820152608401610383565b600654610470906001600160a01b0316838361060c565b5050565b6000336104828582856107b2565b61048d85858561060c565b506001949350505050565b6000336104ba8185856104ab83836105e1565b6104b59190610c7c565b610822565b5060019392505050565b610470828261090c565b6104d833826109cb565b50565b6060600480546102d890610ca2565b600033816104f882866105e1565b9050838110156105585760405162461bcd60e51b815260206004820152602560248201527f45524332303a2064656372656173656420616c6c6f77616e63652062656c6f77604482015264207a65726f60d81b6064820152608401610383565b61048d8286868403610822565b6000336104ba81858561060c565b336000908152602081905260409020548111156105c95760405162461bcd60e51b8152602060048201526014602482015273496e73756666696369656e742062616c616e636560601b6044820152606401610383565b6006546104d89033906001600160a01b03168361060c565b6001600160a01b03918216600090815260016020908152604080832093909416825291909152205490565b6001600160a01b0383166106705760405162461bcd60e51b815260206004820152602560248201527f45524332303a207472616e736665722066726f6d20746865207a65726f206164604482015264647265737360d81b6064820152608401610383565b6001600160a01b0382166106d25760405162461bcd60e51b815260206004820152602360248201527f45524332303a207472616e7366657220746f20746865207a65726f206164647260448201526265737360e81b6064820152608401610383565b6001600160a01b0383166000908152602081905260409020548181101561074a5760405162461bcd60e51b815260206004820152602660248201527f45524332303a207472616e7366657220616d6f756e7420657863656564732062604482015265616c616e636560d01b6064820152608401610383565b6001600160a01b03848116600081815260208181526040808320878703905593871680835291849020805487019055925185815290927fddf252ad1be2c89b69c2b068fc378daa952ba7f163c4a11628f55a4df523b3ef910160405180910390a35b50505050565b60006107be84846105e1565b905060001981146107ac57818111156108195760405162461bcd60e51b815260206004820152601d60248201527f45524332303a20696e73756666696369656e7420616c6c6f77616e63650000006044820152606401610383565b6107ac84848484035b6001600160a01b0383166108845760405162461bcd60e51b8152602060048201526024808201527f45524332303a20617070726f76652066726f6d20746865207a65726f206164646044820152637265737360e01b6064820152608401610383565b6001600160a01b0382166108aa5760405162461bcd60e51b815260040161038390610c3a565b6001600160a01b0383811660008181526001602090815260408083209487168084529482529182902085905590518481527f8c5be1e5ebec7d5bd14f71427d1e84f3dd0314c0f7b2291e5b200ac8c7c3b92591015b60405180910390a3505050565b6001600160a01b0382166109625760405162461bcd60e51b815260206004820152601f60248201527f45524332303a206d696e7420746f20746865207a65726f2061646472657373006044820152606401610383565b80600260008282546109749190610c7c565b90915550506001600160a01b038216600081815260208181526040808320805486019055518481527fddf252ad1be2c89b69c2b068fc378daa952ba7f163c4a11628f55a4df523b3ef910160405180910390a35050565b6001600160a01b038216610a2b5760405162461bcd60e51b815260206004820152602160248201527f45524332303a206275726e2066726f6d20746865207a65726f206164647265736044820152607360f81b6064820152608401610383565b6001600160a01b03821660009081526020819052604090205481811015610a9f5760405162461bcd60e51b815260206004820152602260248201527f45524332303a206275726e20616d6f756e7420657863656564732062616c616e604482015261636560f01b6064820152608401610383565b6001600160a01b0383166000818152602081815260408083208686039055600280548790039055518581529192917fddf252ad1be2c89b69c2b068fc378daa952ba7f163c4a11628f55a4df523b3ef91016108ff565b80356001600160a01b0381168114610b0c57600080fd5b919050565b600060208284031215610b2357600080fd5b610b2c82610af5565b9392505050565b60008060408385031215610b4657600080fd5b610b4f83610af5565b9150610b5d60208401610af5565b90509250929050565b600080600060608486031215610b7b57600080fd5b610b8484610af5565b9250610b9260208501610af5565b9150604084013590509250925092565b60008060408385031215610bb557600080fd5b610bbe83610af5565b946020939093013593505050565b600060208284031215610bde57600080fd5b5035919050565b600060208083528351808285015260005b81811015610c1257858101830151858201604001528201610bf6565b81811115610c24576000604083870101525b50601f01601f1916929092016040019392505050565b60208082526022908201527f45524332303a20617070726f766520746f20746865207a65726f206164647265604082015261737360f01b606082015260800190565b60008219821115610c9d57634e487b7160e01b600052601160045260246000fd5b500190565b600181811c90821680610cb657607f821691505b60208210811415610cd757634e487b7160e01b600052602260045260246000fd5b5091905056fea264697066735822122006290e97922b31fe85240ec3dc92d494565cc38d1242886481b85b2284cbaa5164736f6c63430008070033",
  "immutableReferences": {},
  "source": "//SPDX-License-Identifier: MIT\r\npragma solidity ^0.8.7;\r\nimport \"@openzeppelin/contracts/token/ERC20/ERC20.sol\";\r\n\r\n\r\ncontract FastCoin is ERC20 {\r\n    address public admin;\r\n    address public cafeteria = 0xF0d1611c0C7FbB61F72f5fBEc835A71E59C5edbF;\r\n    mapping (address => mapping (address => uint256)) private _allowances;\r\n\r\n\r\n    constructor() ERC20(\"FastCoin\", \"FST\") {\r\n        admin = msg.sender;\r\n        cafeteria = 0xF0d1611c0C7FbB61F72f5fBEc835A71E59C5edbF;\r\n        _mint(admin, 1000000 * 10 ** decimals()); // Mint initial supply\r\n    }\r\n\r\n    //modifier onlyAdmin() {\r\n    //      require(msg.sender == admin, \"Only admin can perform this action\");\r\n    //      _;\r\n    //  }\r\n\r\n    function setCafeteria(address _cafeteria)  public {\r\n        cafeteria = _cafeteria;\r\n    }\r\n\r\n    function mint(address to, uint amount) public {\r\n        _mint(to, amount);\r\n    }\r\n\r\n    function burn(uint amount) external {\r\n        _burn(msg.sender, amount);\r\n    }\r\n\r\n    function payForOrder(uint amount) external {\r\n        require(balanceOf(msg.sender) >= amount, \"Insufficient balance\");\r\n        _transfer(msg.sender, cafeteria, amount);\r\n        // Additional logic for order processing can be implemented here\r\n    }\r\n\r\n    function refundOrder(address customer, uint amount) external {\r\n        require(msg.sender == cafeteria, \"Only cafeteria can perform this action\");\r\n        _transfer(cafeteria, customer, amount);\r\n        // Additional checks and logic for refunds can be added\r\n    }\r\n\r\n    function approve(address spender, uint256 amount) public override returns (bool) {\r\n        require(spender != address(0), \"ERC20: approve to the zero address\");\r\n\r\n        _allowances[msg.sender][spender] = amount;\r\n        emit Approval(msg.sender, spender, amount);\r\n\r\n        return true;\r\n    }\r\n\r\n\r\n}\r\n    \r\n    ",
  "sourcePath": "C:\\Users\\Lenovo\\Truffle\\contracts\\FastCoin.sol",
  "compiler": {
    "name": "solc",
    "version": "0.8.7+commit.e28d00a7.Emscripten.clang"
  },
  "schemaVersion": "3.4.16",
  "updatedAt": "2024-01-07T18:09:48.274Z",
  "networkType": "ethereum",
  "devdoc": {
    "kind": "dev",
    "methods": {
      "allowance(address,address)": {
        "details": "See {IERC20-allowance}."
      },
      "approve(address,uint256)": {
        "details": "See {IERC20-approve}. NOTE: If `amount` is the maximum `uint256`, the allowance is not updated on `transferFrom`. This is semantically equivalent to an infinite approval. Requirements: - `spender` cannot be the zero address."
      },
      "balanceOf(address)": {
        "details": "See {IERC20-balanceOf}."
      },
      "decimals()": {
        "details": "Returns the number of decimals used to get its user representation. For example, if `decimals` equals `2`, a balance of `505` tokens should be displayed to a user as `5.05` (`505 / 10 ** 2`). Tokens usually opt for a value of 18, imitating the relationship between Ether and Wei. This is the default value returned by this function, unless it's overridden. NOTE: This information is only used for _display_ purposes: it in no way affects any of the arithmetic of the contract, including {IERC20-balanceOf} and {IERC20-transfer}."
      },
      "decreaseAllowance(address,uint256)": {
        "details": "Atomically decreases the allowance granted to `spender` by the caller. This is an alternative to {approve} that can be used as a mitigation for problems described in {IERC20-approve}. Emits an {Approval} event indicating the updated allowance. Requirements: - `spender` cannot be the zero address. - `spender` must have allowance for the caller of at least `subtractedValue`."
      },
      "increaseAllowance(address,uint256)": {
        "details": "Atomically increases the allowance granted to `spender` by the caller. This is an alternative to {approve} that can be used as a mitigation for problems described in {IERC20-approve}. Emits an {Approval} event indicating the updated allowance. Requirements: - `spender` cannot be the zero address."
      },
      "name()": {
        "details": "Returns the name of the token."
      },
      "symbol()": {
        "details": "Returns the symbol of the token, usually a shorter version of the name."
      },
      "totalSupply()": {
        "details": "See {IERC20-totalSupply}."
      },
      "transfer(address,uint256)": {
        "details": "See {IERC20-transfer}. Requirements: - `to` cannot be the zero address. - the caller must have a balance of at least `amount`."
      },
      "transferFrom(address,address,uint256)": {
        "details": "See {IERC20-transferFrom}. Emits an {Approval} event indicating the updated allowance. This is not required by the EIP. See the note at the beginning of {ERC20}. NOTE: Does not update the allowance if the current allowance is the maximum `uint256`. Requirements: - `from` and `to` cannot be the zero address. - `from` must have a balance of at least `amount`. - the caller must have allowance for ``from``'s tokens of at least `amount`."
      }
    },
    "version": 1
  },
  "userdoc": {
    "kind": "user",
    "methods": {},
    "version": 1
  }
}