{
  "contractName": "FastCoin",
  "abi": [
    {
      "inputs": [],
      "stateMutability": "nonpayable",
      "type": "constructor"
    },
    {
      "anonymous": false,
      "inputs": [
        {
          "indexed": true,
          "internalType": "address",
          "name": "owner",
          "type": "address"
        },
        {
          "indexed": true,
          "internalType": "address",
          "name": "spender",
          "type": "address"
        },
        {
          "indexed": false,
          "internalType": "uint256",
          "name": "value",
          "type": "uint256"
        }
      ],
      "name": "Approval",
      "type": "event"
    },
    {
      "anonymous": false,
      "inputs": [
        {
          "indexed": true,
          "internalType": "address",
          "name": "from",
          "type": "address"
        },
        {
          "indexed": true,
          "internalType": "address",
          "name": "to",
          "type": "address"
        },
        {
          "indexed": false,
          "internalType": "uint256",
          "name": "value",
          "type": "uint256"
        }
      ],
      "name": "Transfer",
      "type": "event"
    },
    {
      "inputs": [],
      "name": "admin",
      "outputs": [
        {
          "internalType": "address",
          "name": "",
          "type": "address"
        }
      ],
      "stateMutability": "view",
      "type": "function",
      "constant": true
    },
    {
      "inputs": [
        {
          "internalType": "address",
          "name": "owner",
          "type": "address"
        },
        {
          "internalType": "address",
          "name": "spender",
          "type": "address"
        }
      ],
      "name": "allowance",
      "outputs": [
        {
          "internalType": "uint256",
          "name": "",
          "type": "uint256"
        }
      ],
      "stateMutability": "view",
      "type": "function",
      "constant": true
    },
    {
      "inputs": [
        {
          "internalType": "address",
          "name": "account",
          "type": "address"
        }
      ],
      "name": "balanceOf",
      "outputs": [
        {
          "internalType": "uint256",
          "name": "",
          "type": "uint256"
        }
      ],
      "stateMutability": "view",
      "type": "function",
      "constant": true
    },
    {
      "inputs": [],
      "name": "cafeteria",
      "outputs": [
        {
          "internalType": "address",
          "name": "",
          "type": "address"
        }
      ],
      "stateMutability": "view",
      "type": "function",
      "constant": true
    },
    {
      "inputs": [],
      "name": "decimals",
      "outputs": [
        {
          "internalType": "uint8",
          "name": "",
          "type": "uint8"
        }
      ],
      "stateMutability": "view",
      "type": "function",
      "constant": true
    },
    {
      "inputs": [
        {
          "internalType": "address",
          "name": "spender",
          "type": "address"
        },
        {
          "internalType": "uint256",
          "name": "subtractedValue",
          "type": "uint256"
        }
      ],
      "name": "decreaseAllowance",
      "outputs": [
        {
          "internalType": "bool",
          "name": "",
          "type": "bool"
        }
      ],
      "stateMutability": "nonpayable",
      "type": "function"
    },
    {
      "inputs": [
        {
          "internalType": "address",
          "name": "spender",
          "type": "address"
        },
        {
          "internalType": "uint256",
          "name": "addedValue",
          "type": "uint256"
        }
      ],
      "name": "increaseAllowance",
      "outputs": [
        {
          "internalType": "bool",
          "name": "",
          "type": "bool"
        }
      ],
      "stateMutability": "nonpayable",
      "type": "function"
    },
    {
      "inputs": [],
      "name": "name",
      "outputs": [
        {
          "internalType": "string",
          "name": "",
          "type": "string"
        }
      ],
      "stateMutability": "view",
      "type": "function",
      "constant": true
    },
    {
      "inputs": [],
      "name": "symbol",
      "outputs": [
        {
          "internalType": "string",
          "name": "",
          "type": "string"
        }
      ],
      "stateMutability": "view",
      "type": "function",
      "constant": true
    },
    {
      "inputs": [],
      "name": "totalSupply",
      "outputs": [
        {
          "internalType": "uint256",
          "name": "",
          "type": "uint256"
        }
      ],
      "stateMutability": "view",
      "type": "function",
      "constant": true
    },
    {
      "inputs": [
        {
          "internalType": "address",
          "name": "to",
          "type": "address"
        },
        {
          "internalType": "uint256",
          "name": "amount",
          "type": "uint256"
        }
      ],
      "name": "transfer",
      "outputs": [
        {
          "internalType": "bool",
          "name": "",
          "type": "bool"
        }
      ],
      "stateMutability": "nonpayable",
      "type": "function"
    },
    {
      "inputs": [
        {
          "internalType": "address",
          "name": "from",
          "type": "address"
        },
        {
          "internalType": "address",
          "name": "to",
          "type": "address"
        },
        {
          "internalType": "uint256",
          "name": "amount",
          "type": "uint256"
        }
      ],
      "name": "transferFrom",
      "outputs": [
        {
          "internalType": "bool",
          "name": "",
          "type": "bool"
        }
      ],
      "stateMutability": "nonpayable",
      "type": "function"
    },
    {
      "inputs": [
        {
          "internalType": "address",
          "name": "_cafeteria",
          "type": "address"
        }
      ],
      "name": "setCafeteria",
      "outputs": [],
      "stateMutability": "nonpayable",
      "type": "function"
    },
    {
      "inputs": [
        {
          "internalType": "address",
          "name": "to",
          "type": "address"
        },
        {
          "internalType": "uint256",
          "name": "amount",
          "type": "uint256"
        }
      ],
      "name": "mint",
      "outputs": [],
      "stateMutability": "nonpayable",
      "type": "function"
    },
    {
      "inputs": [
        {
          "internalType": "uint256",
          "name": "amount",
          "type": "uint256"
        }
      ],
      "name": "burn",
      "outputs": [],
      "stateMutability": "nonpayable",
      "type": "function"
    },
    {
      "inputs": [
        {
          "internalType": "uint256",
          "name": "amount",
          "type": "uint256"
        }
      ],
      "name": "payForOrder",
      "outputs": [],
      "stateMutability": "nonpayable",
      "type": "function"
    },
    {
      "inputs": [
        {
          "internalType": "address",
          "name": "customer",
          "type": "address"
        },
        {
          "internalType": "uint256",
          "name": "amount",
          "type": "uint256"
        }
      ],
      "name": "refundOrder",
      "outputs": [],
      "stateMutability": "nonpayable",
      "type": "function"
    },
    {
      "inputs": [
        {
          "internalType": "address",
          "name": "spender",
          "type": "address"
        },
        {
          "internalType": "uint256",
          "name": "amount",
          "type": "uint256"
        }
      ],
      "name": "approve",
      "outputs": [
        {
          "internalType": "bool",
          "name": "",
          "type": "bool"
        }
      ],
      "stateMutability": "nonpayable",
      "type": "function"
    },
    {
      "inputs": [
        {
          "internalType": "address",
          "name": "account",
          "type": "address"
        }
      ],
      "name": "getBalance",
      "outputs": [
        {
          "internalType": "uint256",
          "name": "",
          "type": "uint256"
        }
      ],
      "stateMutability": "view",
      "type": "function",
      "constant": true
    }
  ],
  "bytecode": "0x6080604052600680546001600160a01b03191673f0d1611c0c7fbb61f72f5fbec835a71e59c5edbf1790553480156200003757600080fd5b50604051806040016040528060088152602001672330b9ba21b7b4b760c11b815250604051806040016040528060038152602001621194d560ea1b81525081600390805190602001906200008d929190620001d8565b508051620000a3906004906020840190620001d8565b5050600580546001600160a01b0319908116339081179092556006805490911673f0d1611c0c7fbb61f72f5fbec835a71e59c5edbf1790556200010c9150620000ea601290565b620000f790600a620002e2565b6200010690620f4240620003b0565b62000112565b62000425565b6001600160a01b0382166200016d5760405162461bcd60e51b815260206004820152601f60248201527f45524332303a206d696e7420746f20746865207a65726f206164647265737300604482015260640160405180910390fd5b80600260008282546200018191906200027e565b90915550506001600160a01b038216600081815260208181526040808320805486019055518481527fddf252ad1be2c89b69c2b068fc378daa952ba7f163c4a11628f55a4df523b3ef910160405180910390a35050565b828054620001e690620003d2565b90600052602060002090601f0160209004810192826200020a576000855562000255565b82601f106200022557805160ff191683800117855562000255565b8280016001018555821562000255579182015b828111156200025557825182559160200191906001019062000238565b506200026392915062000267565b5090565b5b8082111562000263576000815560010162000268565b600082198211156200029457620002946200040f565b500190565b600181815b80851115620002da578160001904821115620002be57620002be6200040f565b80851615620002cc57918102915b93841c93908002906200029e565b509250929050565b6000620002f360ff841683620002fa565b9392505050565b6000826200030b57506001620003aa565b816200031a57506000620003aa565b81600181146200033357600281146200033e576200035e565b6001915050620003aa565b60ff8411156200035257620003526200040f565b50506001821b620003aa565b5060208310610133831016604e8410600b841016171562000383575081810a620003aa565b6200038f838362000299565b8060001904821115620003a657620003a66200040f565b0290505b92915050565b6000816000190483118215151615620003cd57620003cd6200040f565b500290565b600181811c90821680620003e757607f821691505b602082108114156200040957634e487b7160e01b600052602260045260246000fd5b50919050565b634e487b7160e01b600052601160045260246000fd5b610cc780620004356000396000f3fe608060405234801561001057600080fd5b50600436106101215760003560e01c806342966c68116100ad578063a9059cbb11610071578063a9059cbb14610288578063d9c2dcee1461029b578063dd62ed3e146102ae578063f851a440146102c1578063f8b2cb4f1461021457600080fd5b806342966c681461020157806370a082311461021457806382412e101461023d57806395d89b411461026d578063a457c2d71461027557600080fd5b806323b872dd116100f457806323b872dd1461018e5780632f3e31bb146101a1578063313ce567146101cc57806339509351146101db57806340c10f19146101ee57600080fd5b806306fdde0314610126578063095ea7b31461014457806318160ddd146101675780631de091b614610179575b600080fd5b61012e6102d4565b60405161013b9190610b99565b60405180910390f35b610157610152366004610b56565b610366565b604051901515815260200161013b565b6002545b60405190815260200161013b565b61018c610187366004610b56565b6103fb565b005b61015761019c366004610b1a565b61047f565b6006546101b4906001600160a01b031681565b6040516001600160a01b03909116815260200161013b565b6040516012815260200161013b565b6101576101e9366004610b56565b6104bd565b61018c6101fc366004610b56565b6104e9565b61018c61020f366004610b80565b6104f3565b61016b610222366004610ac5565b6001600160a01b031660009081526020819052604090205490565b61018c61024b366004610ac5565b600680546001600160a01b0319166001600160a01b0392909216919091179055565b61012e610500565b610157610283366004610b56565b61050f565b610157610296366004610b56565b61058a565b61018c6102a9366004610b80565b610598565b61016b6102bc366004610ae7565b610606565b6005546101b4906001600160a01b031681565b6060600380546102e390610c56565b80601f016020809104026020016040519081016040528092919081815260200182805461030f90610c56565b801561035c5780601f106103315761010080835404028352916020019161035c565b820191906000526020600020905b81548152906001019060200180831161033f57829003601f168201915b5050505050905090565b60006001600160a01b0383166103975760405162461bcd60e51b815260040161038e90610bee565b60405180910390fd5b3360008181526007602090815260408083206001600160a01b03881680855290835292819020869055518581529192917f8c5be1e5ebec7d5bd14f71427d1e84f3dd0314c0f7b2291e5b200ac8c7c3b925910160405180910390a350600192915050565b6006546001600160a01b031633146104645760405162461bcd60e51b815260206004820152602660248201527f4f6e6c79206361666574657269612063616e20706572666f726d20746869732060448201526530b1ba34b7b760d11b606482015260840161038e565b60065461047b906001600160a01b03168383610631565b5050565b6001600160a01b0383166000908152600160209081526040808320338085529252822060001990556104b2858585610631565b506001949350505050565b6000336104df8185856104d08383610606565b6104da9190610c30565b6107d6565b5060019392505050565b61047b82826108c0565b6104fd338261097f565b50565b6060600480546102e390610c56565b6000338161051d8286610606565b90508381101561057d5760405162461bcd60e51b815260206004820152602560248201527f45524332303a2064656372656173656420616c6c6f77616e63652062656c6f77604482015264207a65726f60d81b606482015260840161038e565b6104b282868684036107d6565b6000336104df818585610631565b336000908152602081905260409020548111156105ee5760405162461bcd60e51b8152602060048201526014602482015273496e73756666696369656e742062616c616e636560601b604482015260640161038e565b6006546104fd9033906001600160a01b031683610631565b6001600160a01b03918216600090815260016020908152604080832093909416825291909152205490565b6001600160a01b0383166106955760405162461bcd60e51b815260206004820152602560248201527f45524332303a207472616e736665722066726f6d20746865207a65726f206164604482015264647265737360d81b606482015260840161038e565b6001600160a01b0382166106f75760405162461bcd60e51b815260206004820152602360248201527f45524332303a207472616e7366657220746f20746865207a65726f206164647260448201526265737360e81b606482015260840161038e565b6001600160a01b0383166000908152602081905260409020548181101561076f5760405162461bcd60e51b815260206004820152602660248201527f45524332303a207472616e7366657220616d6f756e7420657863656564732062604482015265616c616e636560d01b606482015260840161038e565b6001600160a01b03848116600081815260208181526040808320878703905593871680835291849020805487019055925185815290927fddf252ad1be2c89b69c2b068fc378daa952ba7f163c4a11628f55a4df523b3ef910160405180910390a350505050565b6001600160a01b0383166108385760405162461bcd60e51b8152602060048201526024808201527f45524332303a20617070726f76652066726f6d20746865207a65726f206164646044820152637265737360e01b606482015260840161038e565b6001600160a01b03821661085e5760405162461bcd60e51b815260040161038e90610bee565b6001600160a01b0383811660008181526001602090815260408083209487168084529482529182902085905590518481527f8c5be1e5ebec7d5bd14f71427d1e84f3dd0314c0f7b2291e5b200ac8c7c3b92591015b60405180910390a3505050565b6001600160a01b0382166109165760405162461bcd60e51b815260206004820152601f60248201527f45524332303a206d696e7420746f20746865207a65726f206164647265737300604482015260640161038e565b80600260008282546109289190610c30565b90915550506001600160a01b038216600081815260208181526040808320805486019055518481527fddf252ad1be2c89b69c2b068fc378daa952ba7f163c4a11628f55a4df523b3ef910160405180910390a35050565b6001600160a01b0382166109df5760405162461bcd60e51b815260206004820152602160248201527f45524332303a206275726e2066726f6d20746865207a65726f206164647265736044820152607360f81b606482015260840161038e565b6001600160a01b03821660009081526020819052604090205481811015610a535760405162461bcd60e51b815260206004820152602260248201527f45524332303a206275726e20616d6f756e7420657863656564732062616c616e604482015261636560f01b606482015260840161038e565b6001600160a01b0383166000818152602081815260408083208686039055600280548790039055518581529192917fddf252ad1be2c89b69c2b068fc378daa952ba7f163c4a11628f55a4df523b3ef91016108b3565b80356001600160a01b0381168114610ac057600080fd5b919050565b600060208284031215610ad757600080fd5b610ae082610aa9565b9392505050565b60008060408385031215610afa57600080fd5b610b0383610aa9565b9150610b1160208401610aa9565b90509250929050565b600080600060608486031215610b2f57600080fd5b610b3884610aa9565b9250610b4660208501610aa9565b9150604084013590509250925092565b60008060408385031215610b6957600080fd5b610b7283610aa9565b946020939093013593505050565b600060208284031215610b9257600080fd5b5035919050565b600060208083528351808285015260005b81811015610bc657858101830151858201604001528201610baa565b81811115610bd8576000604083870101525b50601f01601f1916929092016040019392505050565b60208082526022908201527f45524332303a20617070726f766520746f20746865207a65726f206164647265604082015261737360f01b606082015260800190565b60008219821115610c5157634e487b7160e01b600052601160045260246000fd5b500190565b600181811c90821680610c6a57607f821691505b60208210811415610c8b57634e487b7160e01b600052602260045260246000fd5b5091905056fea264697066735822122045d9165592cae7fe1be36978df4285fc9f2ce7b50e60fa762ba4a3c601f536f864736f6c63430008070033",
  "immutableReferences": {},
  "source": "//SPDX-License-Identifier: MIT\r\npragma solidity ^0.8.7;\r\nimport \"@openzeppelin/contracts/token/ERC20/ERC20.sol\";\r\n\r\n\r\ncontract FastCoin is ERC20 {\r\n    address public admin;\r\n    address public cafeteria = 0xF0d1611c0C7FbB61F72f5fBEc835A71E59C5edbF;\r\n    mapping (address => mapping (address => uint256)) private _allowances;\r\n\r\n\r\n    constructor() ERC20(\"FastCoin\", \"FST\") {\r\n        admin = msg.sender;\r\n        cafeteria = 0xF0d1611c0C7FbB61F72f5fBEc835A71E59C5edbF;\r\n        _mint(admin, 1000000 * 10 ** decimals()); // Mint initial supply\r\n    }\r\n\r\n    //modifier onlyAdmin() {\r\n    //      require(msg.sender == admin, \"Only admin can perform this action\");\r\n    //      _;\r\n    //  }\r\n\r\n    function setCafeteria(address _cafeteria)  public {\r\n        cafeteria = _cafeteria;\r\n    }\r\n\r\n    function mint(address to, uint amount) public {\r\n        _mint(to, amount);\r\n    }\r\n\r\n    function burn(uint amount) external {\r\n        _burn(msg.sender, amount);\r\n    }\r\n\r\n    function payForOrder(uint amount) external {\r\n        require(balanceOf(msg.sender) >= amount, \"Insufficient balance\");\r\n        _transfer(msg.sender, cafeteria, amount);\r\n        // Additional logic for order processing can be implemented here\r\n    }\r\n\r\n    function refundOrder(address customer, uint amount) external {\r\n        require(msg.sender == cafeteria, \"Only cafeteria can perform this action\");\r\n        _transfer(cafeteria, customer, amount);\r\n        // Additional checks and logic for refunds can be added\r\n    }\r\n\r\n    function approve(address spender, uint256 amount) public override returns (bool) {\r\n        require(spender != address(0), \"ERC20: approve to the zero address\");\r\n\r\n        _allowances[msg.sender][spender] = amount;\r\n        emit Approval(msg.sender, spender, amount);\r\n\r\n        return true;\r\n    }\r\n\r\n    function getBalance(address account) public view returns (uint256) {\r\n        return balanceOf(account);\r\n    }\r\n\r\n\r\n}\r\n    \r\n    ",
  "sourcePath": "C:\\Users\\Lenovo\\Truffle\\contracts\\FastCoin.sol",
  "compiler": {
    "name": "solc",
    "version": "0.8.7+commit.e28d00a7.Emscripten.clang"
  },
  "schemaVersion": "3.4.16",
  "updatedAt": "2024-01-13T19:36:48.328Z",
  "networkType": "ethereum",
  "devdoc": {
    "kind": "dev",
    "methods": {
      "allowance(address,address)": {
        "details": "See {IERC20-allowance}."
      },
      "approve(address,uint256)": {
        "details": "See {IERC20-approve}. NOTE: If `amount` is the maximum `uint256`, the allowance is not updated on `transferFrom`. This is semantically equivalent to an infinite approval. Requirements: - `spender` cannot be the zero address."
      },
      "balanceOf(address)": {
        "details": "See {IERC20-balanceOf}."
      },
      "decimals()": {
        "details": "Returns the number of decimals used to get its user representation. For example, if `decimals` equals `2`, a balance of `505` tokens should be displayed to a user as `5.05` (`505 / 10 ** 2`). Tokens usually opt for a value of 18, imitating the relationship between Ether and Wei. This is the default value returned by this function, unless it's overridden. NOTE: This information is only used for _display_ purposes: it in no way affects any of the arithmetic of the contract, including {IERC20-balanceOf} and {IERC20-transfer}."
      },
      "decreaseAllowance(address,uint256)": {
        "details": "Atomically decreases the allowance granted to `spender` by the caller. This is an alternative to {approve} that can be used as a mitigation for problems described in {IERC20-approve}. Emits an {Approval} event indicating the updated allowance. Requirements: - `spender` cannot be the zero address. - `spender` must have allowance for the caller of at least `subtractedValue`."
      },
      "increaseAllowance(address,uint256)": {
        "details": "Atomically increases the allowance granted to `spender` by the caller. This is an alternative to {approve} that can be used as a mitigation for problems described in {IERC20-approve}. Emits an {Approval} event indicating the updated allowance. Requirements: - `spender` cannot be the zero address."
      },
      "name()": {
        "details": "Returns the name of the token."
      },
      "symbol()": {
        "details": "Returns the symbol of the token, usually a shorter version of the name."
      },
      "totalSupply()": {
        "details": "See {IERC20-totalSupply}."
      },
      "transfer(address,uint256)": {
        "details": "See {IERC20-transfer}. Requirements: - `to` cannot be the zero address. - the caller must have a balance of at least `amount`."
      },
      "transferFrom(address,address,uint256)": {
        "details": "See {IERC20-transferFrom}. Emits an {Approval} event indicating the updated allowance. This is not required by the EIP. See the note at the beginning of {ERC20}. NOTE: Does not update the allowance if the current allowance is the maximum `uint256`. Requirements: - `from` and `to` cannot be the zero address. - `from` must have a balance of at least `amount`. - the caller must have allowance for ``from``'s tokens of at least `amount`."
      }
    },
    "version": 1
  },
  "userdoc": {
    "kind": "user",
    "methods": {},
    "version": 1
  }
}