{
  "contractName": "LoyaltyRewards",
  "abi": [
    {
      "inputs": [],
      "stateMutability": "nonpayable",
      "type": "constructor"
    },
    {
      "anonymous": false,
      "inputs": [
        {
          "indexed": true,
          "internalType": "address",
          "name": "customer",
          "type": "address"
        },
        {
          "indexed": false,
          "internalType": "uint256",
          "name": "points",
          "type": "uint256"
        }
      ],
      "name": "PointsEarned",
      "type": "event"
    },
    {
      "anonymous": false,
      "inputs": [
        {
          "indexed": true,
          "internalType": "address",
          "name": "customer",
          "type": "address"
        },
        {
          "indexed": false,
          "internalType": "uint256",
          "name": "points",
          "type": "uint256"
        }
      ],
      "name": "PointsRedeemed",
      "type": "event"
    },
    {
      "inputs": [
        {
          "internalType": "address",
          "name": "",
          "type": "address"
        }
      ],
      "name": "loyaltyPoints",
      "outputs": [
        {
          "internalType": "uint256",
          "name": "",
          "type": "uint256"
        }
      ],
      "stateMutability": "view",
      "type": "function",
      "constant": true
    },
    {
      "inputs": [],
      "name": "owner",
      "outputs": [
        {
          "internalType": "address",
          "name": "",
          "type": "address"
        }
      ],
      "stateMutability": "view",
      "type": "function",
      "constant": true
    },
    {
      "inputs": [],
      "name": "pointsPerEther",
      "outputs": [
        {
          "internalType": "uint256",
          "name": "",
          "type": "uint256"
        }
      ],
      "stateMutability": "view",
      "type": "function",
      "constant": true
    },
    {
      "inputs": [
        {
          "internalType": "address",
          "name": "customer",
          "type": "address"
        }
      ],
      "name": "earnPoints",
      "outputs": [],
      "stateMutability": "payable",
      "type": "function",
      "payable": true
    },
    {
      "inputs": [
        {
          "internalType": "address",
          "name": "customer",
          "type": "address"
        },
        {
          "internalType": "uint256",
          "name": "points",
          "type": "uint256"
        }
      ],
      "name": "redeemPoints",
      "outputs": [],
      "stateMutability": "nonpayable",
      "type": "function"
    },
    {
      "inputs": [
        {
          "internalType": "address",
          "name": "customer",
          "type": "address"
        }
      ],
      "name": "getPoints",
      "outputs": [
        {
          "internalType": "uint256",
          "name": "",
          "type": "uint256"
        }
      ],
      "stateMutability": "view",
      "type": "function",
      "constant": true
    }
  ],
  "bytecode": "0x608060405234801561001057600080fd5b50600080546001600160a01b03191633179055610454806100326000396000f3fe6080604052600436106100555760003560e01c8063317018041461005a5780638da5cb5b14610082578063b85da8d2146100ba578063c8244bee146100dc578063d45e4259146100ef578063ee204abb1461011c575b600080fd5b34801561006657600080fd5b5061006f606481565b6040519081526020015b60405180910390f35b34801561008e57600080fd5b506000546100a2906001600160a01b031681565b6040516001600160a01b039091168152602001610079565b3480156100c657600080fd5b506100da6100d5366004610390565b610152565b005b6100da6100ea36600461036e565b610298565b3480156100fb57600080fd5b5061006f61010a36600461036e565b60016020526000908152604090205481565b34801561012857600080fd5b5061006f61013736600461036e565b6001600160a01b031660009081526001602052604090205490565b6000546001600160a01b031633146101c05760405162461bcd60e51b815260206004820152602660248201527f4f6e6c7920746865206f776e65722063616e20706572666f726d20746869732060448201526530b1ba34b7b760d11b60648201526084015b60405180910390fd5b6001600160a01b0382166000908152600160205260409020548111156102285760405162461bcd60e51b815260206004820152601960248201527f4e6f7420656e6f756768206c6f79616c747920706f696e74730000000000000060448201526064016101b7565b6001600160a01b038216600090815260016020526040812080548392906102509084906103f1565b90915550506040518181526001600160a01b038316907fc37df5d14f305277c1289e9a188a097cda6684189c95f785feb056cb77a8c910906020015b60405180910390a25050565b600034116102d85760405162461bcd60e51b815260206004820152600d60248201526c139bc8115d1a195c881cd95b9d609a1b60448201526064016101b7565b60006102e56064346103d2565b6001600160a01b0383166000908152600160205260408120805492935083929091906103129084906103ba565b90915550506040518181526001600160a01b038316907f2c4c0dc427a50c4a69d2fc184c47a311acf950d8d2f289fbaee64e83e9b289679060200161028c565b80356001600160a01b038116811461036957600080fd5b919050565b60006020828403121561038057600080fd5b61038982610352565b9392505050565b600080604083850312156103a357600080fd5b6103ac83610352565b946020939093013593505050565b600082198211156103cd576103cd610408565b500190565b60008160001904831182151516156103ec576103ec610408565b500290565b60008282101561040357610403610408565b500390565b634e487b7160e01b600052601160045260246000fdfea2646970667358221220314ee4b069ecba3c52eea92e135b411e30cd38106029af98895b2c976a04d07364736f6c63430008070033",
  "immutableReferences": {},
  "source": "// SPDX-License-Identifier: MIT\r\n//pragma solidity ^0.8.11;\r\npragma solidity >=0.4.22 <0.9.0;\r\n\r\ncontract LoyaltyRewards {\r\n    address public owner;\r\n    mapping(address => uint) public loyaltyPoints;\r\n    uint public constant pointsPerEther = 100;\r\n\r\n    event PointsEarned(address indexed customer, uint points);\r\n    event PointsRedeemed(address indexed customer, uint points);\r\n\r\n    constructor() {\r\n        owner = msg.sender;\r\n    }\r\n\r\n    modifier onlyOwner() {\r\n        require(msg.sender == owner, \"Only the owner can perform this action\");\r\n        _;\r\n    }\r\n\r\n    function earnPoints(address customer) external payable {\r\n        require(msg.value > 0, \"No Ether sent\");\r\n        uint points = msg.value * pointsPerEther;\r\n        loyaltyPoints[customer] += points;\r\n        emit PointsEarned(customer, points);\r\n    }\r\n\r\n    function redeemPoints(address customer, uint points) external onlyOwner {\r\n        require(loyaltyPoints[customer] >= points, \"Not enough loyalty points\");\r\n        loyaltyPoints[customer] -= points;\r\n        emit PointsRedeemed(customer, points);\r\n    }\r\n\r\n    function getPoints(address customer) public view returns (uint) {\r\n        return loyaltyPoints[customer];\r\n    }\r\n}\r\n",
  "sourcePath": "C:\\Users\\Lenovo\\Truffle\\contracts\\LoyaltyRewards.sol",
  "compiler": {
    "name": "solc",
    "version": "0.8.7+commit.e28d00a7.Emscripten.clang"
  },
  "schemaVersion": "3.4.16",
  "updatedAt": "2024-01-07T18:09:48.562Z",
  "networkType": "ethereum",
  "devdoc": {
    "kind": "dev",
    "methods": {},
    "version": 1
  },
  "userdoc": {
    "kind": "user",
    "methods": {},
    "version": 1
  }
}