{
  "contractName": "MenuManagement",
  "abi": [
    {
      "inputs": [],
      "stateMutability": "nonpayable",
      "type": "constructor"
    },
    {
      "anonymous": false,
      "inputs": [
        {
          "indexed": false,
          "internalType": "uint256",
          "name": "itemId",
          "type": "uint256"
        },
        {
          "indexed": false,
          "internalType": "string",
          "name": "name",
          "type": "string"
        },
        {
          "indexed": false,
          "internalType": "uint256",
          "name": "price",
          "type": "uint256"
        }
      ],
      "name": "MenuItemAdded",
      "type": "event"
    },
    {
      "anonymous": false,
      "inputs": [
        {
          "indexed": false,
          "internalType": "uint256",
          "name": "id",
          "type": "uint256"
        },
        {
          "indexed": false,
          "internalType": "string",
          "name": "name",
          "type": "string"
        },
        {
          "indexed": false,
          "internalType": "uint256",
          "name": "price",
          "type": "uint256"
        },
        {
          "indexed": false,
          "internalType": "bool",
          "name": "isAvailable",
          "type": "bool"
        }
      ],
      "name": "MenuItemGet",
      "type": "event"
    },
    {
      "anonymous": false,
      "inputs": [
        {
          "indexed": false,
          "internalType": "uint256",
          "name": "itemId",
          "type": "uint256"
        }
      ],
      "name": "MenuItemRemoved",
      "type": "event"
    },
    {
      "anonymous": false,
      "inputs": [
        {
          "indexed": false,
          "internalType": "uint256",
          "name": "itemId",
          "type": "uint256"
        },
        {
          "indexed": false,
          "internalType": "string",
          "name": "name",
          "type": "string"
        },
        {
          "indexed": false,
          "internalType": "uint256",
          "name": "price",
          "type": "uint256"
        },
        {
          "indexed": false,
          "internalType": "bool",
          "name": "isAvailable",
          "type": "bool"
        }
      ],
      "name": "MenuItemUpdated",
      "type": "event"
    },
    {
      "inputs": [],
      "name": "manager",
      "outputs": [
        {
          "internalType": "address",
          "name": "",
          "type": "address"
        }
      ],
      "stateMutability": "view",
      "type": "function",
      "constant": true
    },
    {
      "inputs": [
        {
          "internalType": "uint256",
          "name": "",
          "type": "uint256"
        }
      ],
      "name": "menuItems",
      "outputs": [
        {
          "internalType": "uint256",
          "name": "id",
          "type": "uint256"
        },
        {
          "internalType": "string",
          "name": "name",
          "type": "string"
        },
        {
          "internalType": "uint256",
          "name": "price",
          "type": "uint256"
        },
        {
          "internalType": "bool",
          "name": "isAvailable",
          "type": "bool"
        }
      ],
      "stateMutability": "view",
      "type": "function",
      "constant": true
    },
    {
      "inputs": [],
      "name": "nextItemId",
      "outputs": [
        {
          "internalType": "uint256",
          "name": "",
          "type": "uint256"
        }
      ],
      "stateMutability": "view",
      "type": "function",
      "constant": true
    },
    {
      "inputs": [
        {
          "internalType": "string",
          "name": "_name",
          "type": "string"
        },
        {
          "internalType": "uint256",
          "name": "_price",
          "type": "uint256"
        }
      ],
      "name": "addMenuItem",
      "outputs": [],
      "stateMutability": "nonpayable",
      "type": "function"
    },
    {
      "inputs": [
        {
          "internalType": "uint256",
          "name": "_itemId",
          "type": "uint256"
        },
        {
          "internalType": "string",
          "name": "_name",
          "type": "string"
        },
        {
          "internalType": "uint256",
          "name": "_price",
          "type": "uint256"
        },
        {
          "internalType": "bool",
          "name": "_isAvailable",
          "type": "bool"
        }
      ],
      "name": "updateMenuItem",
      "outputs": [],
      "stateMutability": "nonpayable",
      "type": "function"
    },
    {
      "inputs": [
        {
          "internalType": "uint256",
          "name": "_itemId",
          "type": "uint256"
        }
      ],
      "name": "removeMenuItem",
      "outputs": [],
      "stateMutability": "nonpayable",
      "type": "function"
    },
    {
      "inputs": [
        {
          "internalType": "uint256",
          "name": "_itemId",
          "type": "uint256"
        }
      ],
      "name": "getMenuItem",
      "outputs": [
        {
          "internalType": "uint256",
          "name": "",
          "type": "uint256"
        },
        {
          "internalType": "string",
          "name": "",
          "type": "string"
        },
        {
          "internalType": "uint256",
          "name": "",
          "type": "uint256"
        },
        {
          "internalType": "bool",
          "name": "",
          "type": "bool"
        }
      ],
      "stateMutability": "nonpayable",
      "type": "function"
    }
  ],
  "bytecode": "0x608060405234801561001057600080fd5b50600280546001600160a01b031916331790556109ea806100326000396000f3fe608060405234801561001057600080fd5b506004361061007d5760003560e01c80632a5a8c631161005b5780632a5a8c63146100bd578063481c6a75146100e95780636a86897414610114578063f943eecd1461012b57600080fd5b80630d94bed5146100825780630fdfc449146100975780631b8c556e146100aa575b600080fd5b6100956100903660046107ae565b61013e565b005b6100956100a53660046107c7565b6101fa565b6100956100b8366004610769565b6102f7565b6100d06100cb3660046107ae565b6103ea565b6040516100e09493929190610909565b60405180910390f35b6002546100fc906001600160a01b031681565b6040516001600160a01b0390911681526020016100e0565b61011d60015481565b6040519081526020016100e0565b6100d06101393660046107ae565b61049f565b6002546001600160a01b031633146101715760405162461bcd60e51b81526004016101689061087c565b60405180910390fd5b60015481106101925760405162461bcd60e51b8152600401610168906108b3565b6000818152602081905260408120818155906101b16001830182610606565b5060006002820155600301805460ff191690556040518181527f7317b1bb84248c68adcea38825a2de28886f9c6054712890d44b39afd39c46a69060200160405180910390a150565b6002546001600160a01b031633146102245760405162461bcd60e51b81526004016101689061087c565b60015484106102455760405162461bcd60e51b8152600401610168906108b3565b6040805160808101825285815260208082018681528284018690528415156060840152600088815280835293909320825181559251805192939261028f9260018501920190610643565b5060408281015160028301556060909201516003909101805460ff1916911515919091179055517fcd972cf31214a829dd8c26431adc9020b3a1520148e5f493563531782e6fa6ee906102e9908690869086908690610909565b60405180910390a150505050565b6002546001600160a01b031633146103215760405162461bcd60e51b81526004016101689061087c565b6040805160808101825260018054808352602080840187815284860187905260608501849052600092835282825294909120835181559351805193949361036f938501929190910190610643565b50604082015160028201556060909101516003909101805460ff1916911515919091179055600180549060006103a483610975565b91905055507ff133ddd3ec503b2ee33fbb4f5e12e83073f5383fb39a62fbed168496cf8f212560015483836040516103de939291906108e0565b60405180910390a15050565b6000602081905290815260409020805460018201805491929161040c9061093a565b80601f01602080910402602001604051908101604052809291908181526020018280546104389061093a565b80156104855780601f1061045a57610100808354040283529160200191610485565b820191906000526020600020905b81548152906001019060200180831161046857829003601f168201915b50505050600283015460039093015491929160ff16905084565b6000606060008060015485106104c75760405162461bcd60e51b8152600401610168906108b3565b6000806000878152602001908152602001600020604051806080016040529081600082015481526020016001820180546105009061093a565b80601f016020809104026020016040519081016040528092919081815260200182805461052c9061093a565b80156105795780601f1061054e57610100808354040283529160200191610579565b820191906000526020600020905b81548152906001019060200180831161055c57829003601f168201915b5050509183525050600282015460208083019190915260039092015460ff16151560409182015282519183015183820151606085015192519495507fd86d13308b7270f319dfcdefae1c653b9a5835a4c4e677ccb6bd13ee26514df5946105e1949390610909565b60405180910390a1805160208201516040909201519097919650945060019350915050565b5080546106129061093a565b6000825580601f10610622575050565b601f01602090049060005260206000209081019061064091906106c7565b50565b82805461064f9061093a565b90600052602060002090601f01602090048101928261067157600085556106b7565b82601f1061068a57805160ff19168380011785556106b7565b828001600101855582156106b7579182015b828111156106b757825182559160200191906001019061069c565b506106c39291506106c7565b5090565b5b808211156106c357600081556001016106c8565b600082601f8301126106ed57600080fd5b813567ffffffffffffffff808211156107085761070861099e565b604051601f8301601f19908116603f011681019082821181831017156107305761073061099e565b8160405283815286602085880101111561074957600080fd5b836020870160208301376000602085830101528094505050505092915050565b6000806040838503121561077c57600080fd5b823567ffffffffffffffff81111561079357600080fd5b61079f858286016106dc565b95602094909401359450505050565b6000602082840312156107c057600080fd5b5035919050565b600080600080608085870312156107dd57600080fd5b84359350602085013567ffffffffffffffff8111156107fb57600080fd5b610807878288016106dc565b935050604085013591506060850135801515811461082457600080fd5b939692955090935050565b6000815180845260005b8181101561085557602081850181015186830182015201610839565b81811115610867576000602083870101525b50601f01601f19169290920160200192915050565b6020808252601a908201527f4f6e6c79206d616e616765722063616e2063616c6c2074686973000000000000604082015260600190565b602080825260139082015272125d195b48191bd95cc81b9bdd08195e1a5cdd606a1b604082015260600190565b8381526060602082015260006108f9606083018561082f565b9050826040830152949350505050565b848152608060208201526000610922608083018661082f565b60408301949094525090151560609091015292915050565b600181811c9082168061094e57607f821691505b6020821081141561096f57634e487b7160e01b600052602260045260246000fd5b50919050565b600060001982141561099757634e487b7160e01b600052601160045260246000fd5b5060010190565b634e487b7160e01b600052604160045260246000fdfea2646970667358221220d251a7da199e193d1f81f6078e15eb200231ffbf22994d026c0604eeac1afd8d64736f6c63430008070033",
  "immutableReferences": {},
  "source": "// SPDX-License-Identifier: MIT\r\npragma solidity ^0.8.7;\r\ncontract MenuManagement {\r\n    struct MenuItem {\r\n        uint id;\r\n        string name;\r\n        uint price;\r\n        bool isAvailable;\r\n    }\r\n\r\n    mapping(uint => MenuItem) public menuItems;\r\n    uint public nextItemId;\r\n    address public manager;\r\n    \r\n    event MenuItemAdded(uint itemId, string name, uint price);\r\n    event MenuItemRemoved(uint itemId);\r\n    event MenuItemUpdated(uint itemId, string name, uint price, bool isAvailable);\r\n    event MenuItemGet(uint id,string name,uint price,bool isAvailable);\r\n\r\n    constructor() {\r\n        manager = msg.sender;\r\n    }\r\n\r\n    modifier onlyManager() {\r\n        require(msg.sender == manager, \"Only manager can call this\");\r\n        _;\r\n    }\r\n\r\n    function addMenuItem(string memory _name, uint _price) public onlyManager {\r\n        menuItems[nextItemId] = MenuItem(nextItemId, _name, _price, true);\r\n        nextItemId++;\r\n        emit MenuItemAdded(nextItemId, _name, _price);\r\n\r\n    }\r\n\r\n    function updateMenuItem(uint _itemId, string memory _name, uint _price, bool _isAvailable) public onlyManager {\r\n        require(_itemId < nextItemId, \"Item does not exist\");\r\n        menuItems[_itemId] = MenuItem(_itemId, _name, _price, _isAvailable);\r\n        emit MenuItemUpdated(_itemId, _name, _price, _isAvailable);\r\n\r\n    }\r\n\r\n    function removeMenuItem(uint _itemId) public onlyManager {\r\n        require(_itemId < nextItemId, \"Item does not exist\");\r\n        delete menuItems[_itemId];\r\n        emit MenuItemRemoved(_itemId);\r\n\r\n    }\r\n\r\n    function getMenuItem(uint _itemId) public  returns (  uint ,string memory ,uint,bool) {\r\n        require(_itemId < nextItemId, \"Item does not exist\");\r\n        MenuItem memory item = menuItems[_itemId];\r\n        emit MenuItemGet(item.id, item.name, item.price, item.isAvailable);\r\n        return (item.id, item.name, item.price,true);\r\n        \r\n    }\r\n}\r\n",
  "sourcePath": "C:\\Users\\Lenovo\\Truffle\\contracts\\MenuManagement.sol",
  "compiler": {
    "name": "solc",
    "version": "0.8.7+commit.e28d00a7.Emscripten.clang"
  },
  "schemaVersion": "3.4.16",
  "updatedAt": "2024-01-12T16:34:22.493Z",
  "networkType": "ethereum",
  "devdoc": {
    "kind": "dev",
    "methods": {},
    "version": 1
  },
  "userdoc": {
    "kind": "user",
    "methods": {},
    "version": 1
  }
}