{
  "contractName": "OrderProcessing",
  "abi": [
    {
      "inputs": [
        {
          "internalType": "address",
          "name": "_menuManagementAddress",
          "type": "address"
        },
        {
          "internalType": "address",
          "name": "_promotionsanddiscounts",
          "type": "address"
        },
        {
          "internalType": "address",
          "name": "_cafeteriaWallet",
          "type": "address"
        },
        {
          "internalType": "address",
          "name": "_fastcoinContract",
          "type": "address"
        }
      ],
      "stateMutability": "nonpayable",
      "type": "constructor"
    },
    {
      "anonymous": false,
      "inputs": [
        {
          "indexed": false,
          "internalType": "uint256",
          "name": "orderId",
          "type": "uint256"
        }
      ],
      "name": "OrderCompleted",
      "type": "event"
    },
    {
      "anonymous": false,
      "inputs": [
        {
          "indexed": false,
          "internalType": "uint256",
          "name": "orderId",
          "type": "uint256"
        },
        {
          "indexed": false,
          "internalType": "address",
          "name": "customer",
          "type": "address"
        },
        {
          "indexed": false,
          "internalType": "uint256[]",
          "name": "itemIds",
          "type": "uint256[]"
        },
        {
          "indexed": false,
          "internalType": "uint256[]",
          "name": "quantities",
          "type": "uint256[]"
        },
        {
          "indexed": false,
          "internalType": "uint256",
          "name": "totalPrice",
          "type": "uint256"
        }
      ],
      "name": "OrderPlaced",
      "type": "event"
    },
    {
      "anonymous": false,
      "inputs": [
        {
          "indexed": false,
          "internalType": "address",
          "name": "addy",
          "type": "address"
        }
      ],
      "name": "getAddress",
      "type": "event"
    },
    {
      "inputs": [],
      "name": "cafeteriaWallet",
      "outputs": [
        {
          "internalType": "address",
          "name": "",
          "type": "address"
        }
      ],
      "stateMutability": "view",
      "type": "function",
      "constant": true
    },
    {
      "inputs": [],
      "name": "fastcoinContract",
      "outputs": [
        {
          "internalType": "contract FastCoin",
          "name": "",
          "type": "address"
        }
      ],
      "stateMutability": "view",
      "type": "function",
      "constant": true
    },
    {
      "inputs": [],
      "name": "manager",
      "outputs": [
        {
          "internalType": "address",
          "name": "",
          "type": "address"
        }
      ],
      "stateMutability": "view",
      "type": "function",
      "constant": true
    },
    {
      "inputs": [],
      "name": "nextOrderId",
      "outputs": [
        {
          "internalType": "uint256",
          "name": "",
          "type": "uint256"
        }
      ],
      "stateMutability": "view",
      "type": "function",
      "constant": true
    },
    {
      "inputs": [
        {
          "internalType": "uint256",
          "name": "",
          "type": "uint256"
        }
      ],
      "name": "orders",
      "outputs": [
        {
          "internalType": "uint256",
          "name": "id",
          "type": "uint256"
        },
        {
          "internalType": "address",
          "name": "customer",
          "type": "address"
        },
        {
          "internalType": "uint256",
          "name": "totalPrice",
          "type": "uint256"
        },
        {
          "internalType": "bool",
          "name": "isCompleted",
          "type": "bool"
        }
      ],
      "stateMutability": "view",
      "type": "function",
      "constant": true
    },
    {
      "inputs": [],
      "name": "getaddress",
      "outputs": [],
      "stateMutability": "nonpayable",
      "type": "function"
    },
    {
      "inputs": [
        {
          "internalType": "address",
          "name": "_address",
          "type": "address"
        }
      ],
      "name": "setPromotionsAndDiscountsAddress",
      "outputs": [],
      "stateMutability": "nonpayable",
      "type": "function"
    },
    {
      "inputs": [
        {
          "internalType": "uint256[]",
          "name": "_itemIds",
          "type": "uint256[]"
        },
        {
          "internalType": "uint256[]",
          "name": "_quantities",
          "type": "uint256[]"
        },
        {
          "internalType": "uint256",
          "name": "_discountId",
          "type": "uint256"
        }
      ],
      "name": "placeOrder",
      "outputs": [],
      "stateMutability": "nonpayable",
      "type": "function"
    },
    {
      "inputs": [
        {
          "internalType": "uint256",
          "name": "_orderId",
          "type": "uint256"
        }
      ],
      "name": "completeOrder",
      "outputs": [],
      "stateMutability": "nonpayable",
      "type": "function"
    },
    {
      "inputs": [
        {
          "internalType": "uint256",
          "name": "_orderId",
          "type": "uint256"
        }
      ],
      "name": "getOrder",
      "outputs": [
        {
          "components": [
            {
              "internalType": "uint256",
              "name": "id",
              "type": "uint256"
            },
            {
              "internalType": "address",
              "name": "customer",
              "type": "address"
            },
            {
              "internalType": "uint256[]",
              "name": "itemIds",
              "type": "uint256[]"
            },
            {
              "internalType": "uint256[]",
              "name": "quantities",
              "type": "uint256[]"
            },
            {
              "internalType": "uint256",
              "name": "totalPrice",
              "type": "uint256"
            },
            {
              "internalType": "bool",
              "name": "isCompleted",
              "type": "bool"
            }
          ],
          "internalType": "struct OrderProcessing.Order",
          "name": "",
          "type": "tuple"
        }
      ],
      "stateMutability": "view",
      "type": "function",
      "constant": true
    }
  ],
  "bytecode": "0x6080604052600680546001600160a01b031916731a195a9e85eb5865720f215f4380871e5a1c5b2817905534801561003657600080fd5b50604051610ff2380380610ff2833981016040819052610055916100cc565b60028054336001600160a01b0319918216179091556003805482166001600160a01b03968716179055600680548216938616939093179092556005805483169185169190911790556004805490911691909216179055610120565b80516001600160a01b03811681146100c757600080fd5b919050565b600080600080608085870312156100e257600080fd5b6100eb856100b0565b93506100f9602086016100b0565b9250610107604086016100b0565b9150610115606086016100b0565b905092959194509250565b610ec38061012f6000396000f3fe608060405234801561001057600080fd5b506004361061009e5760003560e01c80638f6dc3a2116100665780638f6dc3a21461011a578063a85c38ef1461012d578063ad6e1e5214610199578063b6adaaff146101ac578063d09ef241146101bf57600080fd5b8063252bd4d3146100a35780632a58b330146100ad578063481c6a75146100c95780634be15b6e146100f45780636654b4d014610107575b600080fd5b6100ab6101df565b005b6100b660015481565b6040519081526020015b60405180910390f35b6002546100dc906001600160a01b031681565b6040516001600160a01b0390911681526020016100c0565b6100ab610102366004610af0565b610214565b6100ab610115366004610b20565b610295565b6006546100dc906001600160a01b031681565b61016f61013b366004610ba8565b600060208190529081526040902080546001820154600483015460059093015491926001600160a01b039091169160ff1684565b604080519485526001600160a01b03909316602085015291830152151560608201526080016100c0565b6005546100dc906001600160a01b031681565b6100ab6101ba366004610ba8565b610686565b6101d26101cd366004610ba8565b6107e3565b6040516100c09190610cc8565b6040513081527fae22c57db0d6f837c963673636539f7f08422a2bdd477a0ab76307205bc4a3709060200160405180910390a1565b6002546001600160a01b031633146102735760405162461bcd60e51b815260206004820152601a60248201527f4f6e6c79206d616e616765722063616e2063616c6c207468697300000000000060448201526064015b60405180910390fd5b600480546001600160a01b0319166001600160a01b0392909216919091179055565b6000805b84518110156103da57600354855160009182916001600160a01b039091169063f943eecd908990869081106102d0576102d0610e61565b60200260200101516040518263ffffffff1660e01b81526004016102f691815260200190565b600060405180830381600087803b15801561031057600080fd5b505af1158015610324573d6000803e3d6000fd5b505050506040513d6000823e601f3d908101601f1916820160405261034c9190810190610bc1565b935093505050806103945760405162461bcd60e51b81526020600482015260126024820152714974656d206e6f7420617661696c61626c6560701b604482015260640161026a565b8583815181106103a6576103a6610e61565b6020026020010151826103b99190610dfa565b6103c39085610dc0565b9350505080806103d290610e30565b915050610299565b50816103e8146104a257600480546040516308cdb6f960e21b8152918201849052600091829182916001600160a01b0390911690632336dbe490602401600060405180830381600087803b15801561043157600080fd5b505af1158015610445573d6000803e3d6000fd5b505050506040513d6000823e601f3d908101601f1916820160405261046d9190810190610c22565b94509450945050506000606484866104859190610dfa565b61048f9190610dd8565b905061049b8186610e19565b9450505050505b6005546040516323b872dd60e01b8152336004820152306024820152604481018390526001600160a01b03909116906323b872dd90606401602060405180830381600087803b1580156104f457600080fd5b505af1158015610508573d6000803e3d6000fd5b505050506040513d601f19601f8201168201806040525081019061052c9190610b8d565b6105695760405162461bcd60e51b815260206004820152600e60248201526d14185e5b595b9d0819985a5b195960921b604482015260640161026a565b6040805160c081018252600180548083523360208085019182528486018a8152606086018a905260808601889052600060a087018190529384528382529590922084518155905192810180546001600160a01b0319166001600160a01b039094169390931790925592518051929391926105e99260028501920190610969565b5060608201518051610605916003840191602090910190610969565b506080820151600482015560a0909101516005909101805460ff19169115159190911790556001546040517f139655a2f386144ce79a0615e0effbb04800bf07b3130adda12ea0d19573411191610663913390889088908790610d40565b60405180910390a16001805490600061067b83610e30565b919050555050505050565b6002546001600160a01b031633146106e05760405162461bcd60e51b815260206004820152601a60248201527f4f6e6c79206d616e616765722063616e2063616c6c2074686973000000000000604482015260640161026a565b60015481106107285760405162461bcd60e51b815260206004820152601460248201527313dc99195c88191bd95cc81b9bdd08195e1a5cdd60621b604482015260640161026a565b60008181526020819052604090206005015460ff161561078a5760405162461bcd60e51b815260206004820152601a60248201527f4f7264657220697320616c726561647920636f6d706c65746564000000000000604482015260640161026a565b60008181526020819052604090819020600501805460ff19166001179055517f02a7d4d9472af7118644884b9a0ee443540c0027e938dd0aa35be8ecbe946c0a906107d89083815260200190565b60405180910390a150565b6108276040518060c001604052806000815260200160006001600160a01b031681526020016060815260200160608152602001600081526020016000151581525090565b600154821061086f5760405162461bcd60e51b815260206004820152601460248201527313dc99195c88191bd95cc81b9bdd08195e1a5cdd60621b604482015260640161026a565b60008281526020818152604091829020825160c0810184528154815260018201546001600160a01b031681840152600282018054855181860281018601875281815292959394938601938301828280156108e857602002820191906000526020600020905b8154815260200190600101908083116108d4575b505050505081526020016003820180548060200260200160405190810160405280929190818152602001828054801561094057602002820191906000526020600020905b81548152602001906001019080831161092c575b50505091835250506004820154602082015260059091015460ff16151560409091015292915050565b8280548282559060005260206000209081019282156109a4579160200282015b828111156109a4578251825591602001919060010190610989565b506109b09291506109b4565b5090565b5b808211156109b057600081556001016109b5565b600082601f8301126109da57600080fd5b8135602067ffffffffffffffff8211156109f6576109f6610e77565b8160051b610a05828201610d8f565b838152828101908684018388018501891015610a2057600080fd5b600093505b85841015610a43578035835260019390930192918401918401610a25565b50979650505050505050565b80518015158114610a5f57600080fd5b919050565b600082601f830112610a7557600080fd5b815167ffffffffffffffff811115610a8f57610a8f610e77565b6020610aa3601f8301601f19168201610d8f565b8281528582848701011115610ab757600080fd5b60005b83811015610ad5578581018301518282018401528201610aba565b83811115610ae65760008385840101525b5095945050505050565b600060208284031215610b0257600080fd5b81356001600160a01b0381168114610b1957600080fd5b9392505050565b600080600060608486031215610b3557600080fd5b833567ffffffffffffffff80821115610b4d57600080fd5b610b59878388016109c9565b94506020860135915080821115610b6f57600080fd5b50610b7c868287016109c9565b925050604084013590509250925092565b600060208284031215610b9f57600080fd5b610b1982610a4f565b600060208284031215610bba57600080fd5b5035919050565b60008060008060808587031215610bd757600080fd5b84519350602085015167ffffffffffffffff811115610bf557600080fd5b610c0187828801610a64565b93505060408501519150610c1760608601610a4f565b905092959194509250565b600080600080600060a08688031215610c3a57600080fd5b85519450602086015167ffffffffffffffff811115610c5857600080fd5b610c6488828901610a64565b9450506040860151925060608601519150610c8160808701610a4f565b90509295509295909350565b600081518084526020808501945080840160005b83811015610cbd57815187529582019590820190600101610ca1565b509495945050505050565b602081528151602082015260018060a01b0360208301511660408201526000604083015160c06060840152610d0060e0840182610c8d565b90506060840151601f19848303016080850152610d1d8282610c8d565b915050608084015160a084015260a0840151151560c08401528091505092915050565b8581526001600160a01b038516602082015260a060408201819052600090610d6a90830186610c8d565b8281036060840152610d7c8186610c8d565b9150508260808301529695505050505050565b604051601f8201601f1916810167ffffffffffffffff81118282101715610db857610db8610e77565b604052919050565b60008219821115610dd357610dd3610e4b565b500190565b600082610df557634e487b7160e01b600052601260045260246000fd5b500490565b6000816000190483118215151615610e1457610e14610e4b565b500290565b600082821015610e2b57610e2b610e4b565b500390565b6000600019821415610e4457610e44610e4b565b5060010190565b634e487b7160e01b600052601160045260246000fd5b634e487b7160e01b600052603260045260246000fd5b634e487b7160e01b600052604160045260246000fdfea264697066735822122091cf9029b6d76477e48b8c58067a2fef9ac27b250b2106bc616c603378f28c4764736f6c63430008070033",
  "immutableReferences": {},
  "source": "// SPDX-License-Identifier: MIT\r\npragma solidity ^0.8.7;\r\n\r\nimport \"./FastCoin.sol\";\r\nimport \"./MenuManagement.sol\";\r\nimport \"./PromotionsAndDiscounts.sol\";\r\n\r\ncontract OrderProcessing {\r\n    struct Order {\r\n        uint id;\r\n        address customer;\r\n        uint[] itemIds;\r\n        uint[] quantities;\r\n        uint256 totalPrice;\r\n        bool isCompleted;\r\n    }\r\n\r\n    struct MenuItem {\r\n        uint id;\r\n        string name;\r\n        uint price;\r\n        bool isAvailable;\r\n    }\r\n\r\n    mapping(uint => Order) public orders;\r\n    uint public nextOrderId;\r\n    address public manager;\r\n    MenuManagement menuManagement;\r\n    PromotionsAndDiscounts promotionsAndDiscounts;\r\n    FastCoin public fastcoinContract;\r\n\r\n    address public cafeteriaWallet = 0x1a195a9e85eb5865720f215f4380871E5a1c5b28; \r\n\r\n    event OrderPlaced(uint orderId, address customer, uint[] itemIds, uint[] quantities, uint totalPrice);\r\n    event OrderCompleted(uint orderId);\r\n    event getAddress(address addy);\r\n\r\n    constructor(address _menuManagementAddress,address _promotionsanddiscounts,address _cafeteriaWallet,address _fastcoinContract) {\r\n        manager = msg.sender;\r\n        menuManagement = MenuManagement(_menuManagementAddress);\r\n        cafeteriaWallet = _cafeteriaWallet;\r\n        fastcoinContract = FastCoin(_fastcoinContract);\r\n        promotionsAndDiscounts = PromotionsAndDiscounts(_promotionsanddiscounts);\r\n    }\r\n\r\n    modifier onlyManager() {\r\n        require(msg.sender == manager, \"Only manager can call this\");\r\n        _;\r\n    }\r\n\r\n    function getaddress() public{\r\n        emit getAddress (address(this)); \r\n    }\r\n\r\n    function setPromotionsAndDiscountsAddress(address _address) public onlyManager {\r\n        promotionsAndDiscounts = PromotionsAndDiscounts(_address);\r\n    }\r\n\r\n    function placeOrder(uint[] memory _itemIds, uint[] memory _quantities , uint _discountId) public {\r\n        uint256 totalPrice_1 = 0;\r\n        for (uint i = 0; i < _itemIds.length ; i++) {\r\n            (, , uint price, bool isAvailable) = menuManagement.getMenuItem(_itemIds[i]);\r\n            require(isAvailable, \"Item not available\");\r\n            totalPrice_1 += price * _quantities[i];\r\n        }\r\n       // Apply discount if available\r\n        if (_discountId != 1000) {\r\n          (, , uint discountPercent, uint validUntil, bool isActive) = promotionsAndDiscounts.getDiscount(_discountId);\r\n            uint discountAmount = totalPrice_1 * discountPercent / 100;\r\n            totalPrice_1 -= discountAmount;           \r\n        }\r\n     //   require(fastcoinContract.approve(address(this), totalPrice), \"Approval failed\");\r\n     //   require(fastcoinContract.approve(msg.sender, totalPrice), \"Approval failed\");\r\n\r\n        // Pay for the order\r\n       // fastcoinContract.payForOrder(totalPrice);\r\n       // require(fastcoinContract.approve(address(this), totalPrice_1+20), \"Approval failed\");\r\n        require(fastcoinContract.transferFrom(msg.sender, address(this), totalPrice_1), \"Payment failed\");\r\n        orders[nextOrderId] = Order(nextOrderId, msg.sender, _itemIds, _quantities, totalPrice_1, false);\r\n        emit OrderPlaced(nextOrderId, msg.sender, _itemIds, _quantities, totalPrice_1);\r\n        nextOrderId++;\r\n    }\r\n\r\n  \r\n\r\n    function completeOrder(uint _orderId) public onlyManager {\r\n        require(_orderId < nextOrderId, \"Order does not exist\");\r\n        require(!orders[_orderId].isCompleted, \"Order is already completed\");\r\n        orders[_orderId].isCompleted = true;\r\n        emit OrderCompleted(_orderId);\r\n    }\r\n\r\n    function getOrder(uint _orderId) public view returns (Order memory) {\r\n        require(_orderId < nextOrderId, \"Order does not exist\");\r\n        return orders[_orderId];\r\n    }\r\n}\r\n",
  "sourcePath": "C:\\Users\\Lenovo\\Truffle\\contracts\\OrderProcessing.sol",
  "compiler": {
    "name": "solc",
    "version": "0.8.7+commit.e28d00a7.Emscripten.clang"
  },
  "schemaVersion": "3.4.16",
  "updatedAt": "2024-01-12T16:34:22.516Z",
  "networkType": "ethereum",
  "devdoc": {
    "kind": "dev",
    "methods": {},
    "version": 1
  },
  "userdoc": {
    "kind": "user",
    "methods": {},
    "version": 1
  }
}