{
  "contractName": "OrderProcessing",
  "abi": [
    {
      "inputs": [
        {
          "internalType": "address",
          "name": "_menuManagementAddress",
          "type": "address"
        },
        {
          "internalType": "address",
          "name": "_promotionsanddiscounts",
          "type": "address"
        },
        {
          "internalType": "address",
          "name": "_cafeteriaWallet",
          "type": "address"
        },
        {
          "internalType": "address",
          "name": "_fastcoinContract",
          "type": "address"
        },
        {
          "internalType": "address",
          "name": "_loyaltyContract",
          "type": "address"
        }
      ],
      "stateMutability": "nonpayable",
      "type": "constructor"
    },
    {
      "anonymous": false,
      "inputs": [
        {
          "indexed": false,
          "internalType": "uint256",
          "name": "orderId",
          "type": "uint256"
        }
      ],
      "name": "OrderCompleted",
      "type": "event"
    },
    {
      "anonymous": false,
      "inputs": [
        {
          "indexed": false,
          "internalType": "uint256",
          "name": "orderId",
          "type": "uint256"
        },
        {
          "indexed": false,
          "internalType": "address",
          "name": "customer",
          "type": "address"
        },
        {
          "indexed": false,
          "internalType": "uint256[]",
          "name": "itemIds",
          "type": "uint256[]"
        },
        {
          "indexed": false,
          "internalType": "uint256[]",
          "name": "quantities",
          "type": "uint256[]"
        },
        {
          "indexed": false,
          "internalType": "uint256",
          "name": "totalPrice",
          "type": "uint256"
        }
      ],
      "name": "OrderPlaced",
      "type": "event"
    },
    {
      "anonymous": false,
      "inputs": [
        {
          "indexed": false,
          "internalType": "address",
          "name": "addy",
          "type": "address"
        }
      ],
      "name": "getAddress",
      "type": "event"
    },
    {
      "inputs": [],
      "name": "cafeteriaWallet",
      "outputs": [
        {
          "internalType": "address",
          "name": "",
          "type": "address"
        }
      ],
      "stateMutability": "view",
      "type": "function",
      "constant": true
    },
    {
      "inputs": [],
      "name": "fastcoinContract",
      "outputs": [
        {
          "internalType": "contract FastCoin",
          "name": "",
          "type": "address"
        }
      ],
      "stateMutability": "view",
      "type": "function",
      "constant": true
    },
    {
      "inputs": [],
      "name": "loyaltyContract",
      "outputs": [
        {
          "internalType": "contract LoyaltyRewards",
          "name": "",
          "type": "address"
        }
      ],
      "stateMutability": "view",
      "type": "function",
      "constant": true
    },
    {
      "inputs": [],
      "name": "manager",
      "outputs": [
        {
          "internalType": "address",
          "name": "",
          "type": "address"
        }
      ],
      "stateMutability": "view",
      "type": "function",
      "constant": true
    },
    {
      "inputs": [],
      "name": "nextOrderId",
      "outputs": [
        {
          "internalType": "uint256",
          "name": "",
          "type": "uint256"
        }
      ],
      "stateMutability": "view",
      "type": "function",
      "constant": true
    },
    {
      "inputs": [
        {
          "internalType": "uint256",
          "name": "",
          "type": "uint256"
        }
      ],
      "name": "orders",
      "outputs": [
        {
          "internalType": "uint256",
          "name": "id",
          "type": "uint256"
        },
        {
          "internalType": "address",
          "name": "customer",
          "type": "address"
        },
        {
          "internalType": "uint256",
          "name": "totalPrice",
          "type": "uint256"
        },
        {
          "internalType": "bool",
          "name": "isCompleted",
          "type": "bool"
        }
      ],
      "stateMutability": "view",
      "type": "function",
      "constant": true
    },
    {
      "inputs": [],
      "name": "getaddress",
      "outputs": [],
      "stateMutability": "nonpayable",
      "type": "function"
    },
    {
      "inputs": [
        {
          "internalType": "address",
          "name": "_address",
          "type": "address"
        }
      ],
      "name": "setPromotionsAndDiscountsAddress",
      "outputs": [],
      "stateMutability": "nonpayable",
      "type": "function"
    },
    {
      "inputs": [
        {
          "internalType": "uint256[]",
          "name": "_itemIds",
          "type": "uint256[]"
        },
        {
          "internalType": "uint256[]",
          "name": "_quantities",
          "type": "uint256[]"
        },
        {
          "internalType": "uint256",
          "name": "_discountId",
          "type": "uint256"
        }
      ],
      "name": "placeOrder",
      "outputs": [],
      "stateMutability": "nonpayable",
      "type": "function"
    },
    {
      "inputs": [
        {
          "internalType": "uint256",
          "name": "_orderId",
          "type": "uint256"
        }
      ],
      "name": "completeOrder",
      "outputs": [],
      "stateMutability": "nonpayable",
      "type": "function"
    },
    {
      "inputs": [
        {
          "internalType": "uint256",
          "name": "_orderId",
          "type": "uint256"
        }
      ],
      "name": "getOrder",
      "outputs": [
        {
          "components": [
            {
              "internalType": "uint256",
              "name": "id",
              "type": "uint256"
            },
            {
              "internalType": "address",
              "name": "customer",
              "type": "address"
            },
            {
              "internalType": "uint256[]",
              "name": "itemIds",
              "type": "uint256[]"
            },
            {
              "internalType": "uint256[]",
              "name": "quantities",
              "type": "uint256[]"
            },
            {
              "internalType": "uint256",
              "name": "totalPrice",
              "type": "uint256"
            },
            {
              "internalType": "bool",
              "name": "isCompleted",
              "type": "bool"
            }
          ],
          "internalType": "struct OrderProcessing.Order",
          "name": "",
          "type": "tuple"
        }
      ],
      "stateMutability": "view",
      "type": "function",
      "constant": true
    }
  ],
  "bytecode": "0x6080604052600780546001600160a01b031916731a195a9e85eb5865720f215f4380871e5a1c5b281790553480156200003757600080fd5b5060405162001104380380620011048339810160408190526200005a91620000e4565b60028054336001600160a01b0319918216179091556003805482166001600160a01b03978816179055600780548216948716949094179093556005805484169286169290921790915560048054831693851693909317909255600680549091169190921617905562000154565b80516001600160a01b0381168114620000df57600080fd5b919050565b600080600080600060a08688031215620000fd57600080fd5b6200010886620000c7565b94506200011860208701620000c7565b93506200012860408701620000c7565b92506200013860608701620000c7565b91506200014860808701620000c7565b90509295509295909350565b610fa080620001646000396000f3fe608060405234801561001057600080fd5b50600436106100a95760003560e01c80636654b4d0116100715780636654b4d0146101255780638f6dc3a214610138578063a85c38ef1461014b578063ad6e1e52146101b7578063b6adaaff146101ca578063d09ef241146101dd57600080fd5b80631ed24e20146100ae578063252bd4d3146100de5780632a58b330146100e8578063481c6a75146100ff5780634be15b6e14610112575b600080fd5b6006546100c1906001600160a01b031681565b6040516001600160a01b0390911681526020015b60405180910390f35b6100e66101fd565b005b6100f160015481565b6040519081526020016100d5565b6002546100c1906001600160a01b031681565b6100e6610120366004610bb4565b610232565b6100e6610133366004610be4565b6102b3565b6007546100c1906001600160a01b031681565b61018d610159366004610c6c565b600060208190529081526040902080546001820154600483015460059093015491926001600160a01b039091169160ff1684565b604080519485526001600160a01b03909316602085015291830152151560608201526080016100d5565b6005546100c1906001600160a01b031681565b6100e66101d8366004610c6c565b61074a565b6101f06101eb366004610c6c565b6108a7565b6040516100d59190610da5565b6040513081527fae22c57db0d6f837c963673636539f7f08422a2bdd477a0ab76307205bc4a3709060200160405180910390a1565b6002546001600160a01b031633146102915760405162461bcd60e51b815260206004820152601a60248201527f4f6e6c79206d616e616765722063616e2063616c6c207468697300000000000060448201526064015b60405180910390fd5b600480546001600160a01b0319166001600160a01b0392909216919091179055565b6000805b84518110156103f857600354855160009182916001600160a01b039091169063f943eecd908990869081106102ee576102ee610f3e565b60200260200101516040518263ffffffff1660e01b815260040161031491815260200190565b600060405180830381600087803b15801561032e57600080fd5b505af1158015610342573d6000803e3d6000fd5b505050506040513d6000823e601f3d908101601f1916820160405261036a9190810190610c9e565b935093505050806103b25760405162461bcd60e51b81526020600482015260126024820152714974656d206e6f7420617661696c61626c6560701b6044820152606401610288565b8583815181106103c4576103c4610f3e565b6020026020010151826103d79190610ed7565b6103e19085610e9d565b9350505080806103f090610f0d565b9150506102b7565b50816103e81461056657600480546040516308cdb6f960e21b8152918201849052600091829182916001600160a01b0390911690632336dbe490602401600060405180830381600087803b15801561044f57600080fd5b505af1158015610463573d6000803e3d6000fd5b505050506040513d6000823e601f3d908101601f1916820160405261048b9190810190610cff565b60065460405163ee204abb60e01b81523360048201529398509196509450600093506001600160a01b0316915063ee204abb9060240160206040518083038186803b1580156104d957600080fd5b505afa1580156104ed573d6000803e3d6000fd5b505050506040513d601f19601f820116820180604052508101906105119190610c85565b9050600060646105218688610ed7565b61052b9190610eb5565b90506000606461053b8489610ed7565b6105459190610eb5565b90506105518288610ef6565b965061055d8188610ef6565b96505050505050505b6005546040516323b872dd60e01b8152336004820152306024820152604481018390526001600160a01b03909116906323b872dd90606401602060405180830381600087803b1580156105b857600080fd5b505af11580156105cc573d6000803e3d6000fd5b505050506040513d601f19601f820116820180604052508101906105f09190610c51565b61062d5760405162461bcd60e51b815260206004820152600e60248201526d14185e5b595b9d0819985a5b195960921b6044820152606401610288565b6040805160c081018252600180548083523360208085019182528486018a8152606086018a905260808601889052600060a087018190529384528382529590922084518155905192810180546001600160a01b0319166001600160a01b039094169390931790925592518051929391926106ad9260028501920190610a2d565b50606082015180516106c9916003840191602090910190610a2d565b506080820151600482015560a0909101516005909101805460ff19169115159190911790556001546040517f139655a2f386144ce79a0615e0effbb04800bf07b3130adda12ea0d19573411191610727913390889088908790610e1d565b60405180910390a16001805490600061073f83610f0d565b919050555050505050565b6002546001600160a01b031633146107a45760405162461bcd60e51b815260206004820152601a60248201527f4f6e6c79206d616e616765722063616e2063616c6c20746869730000000000006044820152606401610288565b60015481106107ec5760405162461bcd60e51b815260206004820152601460248201527313dc99195c88191bd95cc81b9bdd08195e1a5cdd60621b6044820152606401610288565b60008181526020819052604090206005015460ff161561084e5760405162461bcd60e51b815260206004820152601a60248201527f4f7264657220697320616c726561647920636f6d706c657465640000000000006044820152606401610288565b60008181526020819052604090819020600501805460ff19166001179055517f02a7d4d9472af7118644884b9a0ee443540c0027e938dd0aa35be8ecbe946c0a9061089c9083815260200190565b60405180910390a150565b6108eb6040518060c001604052806000815260200160006001600160a01b031681526020016060815260200160608152602001600081526020016000151581525090565b60015482106109335760405162461bcd60e51b815260206004820152601460248201527313dc99195c88191bd95cc81b9bdd08195e1a5cdd60621b6044820152606401610288565b60008281526020818152604091829020825160c0810184528154815260018201546001600160a01b031681840152600282018054855181860281018601875281815292959394938601938301828280156109ac57602002820191906000526020600020905b815481526020019060010190808311610998575b5050505050815260200160038201805480602002602001604051908101604052809291908181526020018280548015610a0457602002820191906000526020600020905b8154815260200190600101908083116109f0575b50505091835250506004820154602082015260059091015460ff16151560409091015292915050565b828054828255906000526020600020908101928215610a68579160200282015b82811115610a68578251825591602001919060010190610a4d565b50610a74929150610a78565b5090565b5b80821115610a745760008155600101610a79565b600082601f830112610a9e57600080fd5b8135602067ffffffffffffffff821115610aba57610aba610f54565b8160051b610ac9828201610e6c565b838152828101908684018388018501891015610ae457600080fd5b600093505b85841015610b07578035835260019390930192918401918401610ae9565b50979650505050505050565b80518015158114610b2357600080fd5b919050565b600082601f830112610b3957600080fd5b815167ffffffffffffffff811115610b5357610b53610f54565b6020610b67601f8301601f19168201610e6c565b8281528582848701011115610b7b57600080fd5b60005b83811015610b99578581018301518282018401528201610b7e565b83811115610baa5760008385840101525b5095945050505050565b600060208284031215610bc657600080fd5b81356001600160a01b0381168114610bdd57600080fd5b9392505050565b600080600060608486031215610bf957600080fd5b833567ffffffffffffffff80821115610c1157600080fd5b610c1d87838801610a8d565b94506020860135915080821115610c3357600080fd5b50610c4086828701610a8d565b925050604084013590509250925092565b600060208284031215610c6357600080fd5b610bdd82610b13565b600060208284031215610c7e57600080fd5b5035919050565b600060208284031215610c9757600080fd5b5051919050565b60008060008060808587031215610cb457600080fd5b84519350602085015167ffffffffffffffff811115610cd257600080fd5b610cde87828801610b28565b93505060408501519150610cf460608601610b13565b905092959194509250565b600080600080600060a08688031215610d1757600080fd5b85519450602086015167ffffffffffffffff811115610d3557600080fd5b610d4188828901610b28565b9450506040860151925060608601519150610d5e60808701610b13565b90509295509295909350565b600081518084526020808501945080840160005b83811015610d9a57815187529582019590820190600101610d7e565b509495945050505050565b602081528151602082015260018060a01b0360208301511660408201526000604083015160c06060840152610ddd60e0840182610d6a565b90506060840151601f19848303016080850152610dfa8282610d6a565b915050608084015160a084015260a0840151151560c08401528091505092915050565b8581526001600160a01b038516602082015260a060408201819052600090610e4790830186610d6a565b8281036060840152610e598186610d6a565b9150508260808301529695505050505050565b604051601f8201601f1916810167ffffffffffffffff81118282101715610e9557610e95610f54565b604052919050565b60008219821115610eb057610eb0610f28565b500190565b600082610ed257634e487b7160e01b600052601260045260246000fd5b500490565b6000816000190483118215151615610ef157610ef1610f28565b500290565b600082821015610f0857610f08610f28565b500390565b6000600019821415610f2157610f21610f28565b5060010190565b634e487b7160e01b600052601160045260246000fd5b634e487b7160e01b600052603260045260246000fd5b634e487b7160e01b600052604160045260246000fdfea264697066735822122030abcd92bef9b3ae23e32e3c302b5e94ca94c8da2ba9230030992665c048704464736f6c63430008070033",
  "immutableReferences": {},
  "source": "// SPDX-License-Identifier: MIT\r\npragma solidity ^0.8.7;\r\n\r\nimport \"./FastCoin.sol\";\r\nimport \"./MenuManagement.sol\";\r\nimport \"./PromotionsAndDiscounts.sol\";\r\nimport \"./LoyaltyRewards.sol\";\r\n\r\ncontract OrderProcessing {\r\n    struct Order {\r\n        uint id;\r\n        address customer;\r\n        uint[] itemIds;\r\n        uint[] quantities;\r\n        uint256 totalPrice;\r\n        bool isCompleted;\r\n    }\r\n\r\n    struct MenuItem {\r\n        uint id;\r\n        string name;\r\n        uint price;\r\n        bool isAvailable;\r\n    }\r\n\r\n    mapping(uint => Order) public orders;\r\n    uint public nextOrderId;\r\n    address public manager;\r\n    MenuManagement menuManagement;\r\n    PromotionsAndDiscounts promotionsAndDiscounts;\r\n    FastCoin public fastcoinContract;\r\n    LoyaltyRewards public loyaltyContract;\r\n\r\n    address public cafeteriaWallet = 0x1a195a9e85eb5865720f215f4380871E5a1c5b28; \r\n\r\n    event OrderPlaced(uint orderId, address customer, uint[] itemIds, uint[] quantities, uint totalPrice);\r\n    event OrderCompleted(uint orderId);\r\n    event getAddress(address addy);\r\n\r\n    constructor(address _menuManagementAddress,address _promotionsanddiscounts,address _cafeteriaWallet,address _fastcoinContract,address _loyaltyContract) {\r\n        manager = msg.sender;\r\n        menuManagement = MenuManagement(_menuManagementAddress);\r\n        cafeteriaWallet = _cafeteriaWallet;\r\n        fastcoinContract = FastCoin(_fastcoinContract);\r\n        promotionsAndDiscounts = PromotionsAndDiscounts(_promotionsanddiscounts);\r\n        loyaltyContract = LoyaltyRewards(_loyaltyContract);\r\n    }\r\n\r\n    modifier onlyManager() {\r\n        require(msg.sender == manager, \"Only manager can call this\");\r\n        _;\r\n    }\r\n\r\n    function getaddress() public{\r\n        emit getAddress (address(this)); \r\n    }\r\n\r\n    function setPromotionsAndDiscountsAddress(address _address) public onlyManager {\r\n        promotionsAndDiscounts = PromotionsAndDiscounts(_address);\r\n    }\r\n\r\n    function placeOrder(uint[] memory _itemIds, uint[] memory _quantities , uint _discountId) public {\r\n        uint256 totalPrice_1 = 0;\r\n        for (uint i = 0; i < _itemIds.length ; i++) {\r\n            (, , uint price, bool isAvailable) = menuManagement.getMenuItem(_itemIds[i]);\r\n            require(isAvailable, \"Item not available\");\r\n            totalPrice_1 += price * _quantities[i];\r\n        }\r\n       // Apply discount if available\r\n        if (_discountId != 1000) {\r\n          (, , uint discountPercent, uint validUntil, bool isActive) = promotionsAndDiscounts.getDiscount(_discountId);\r\n          (uint Point)= loyaltyContract.getPoints(msg.sender);\r\n            uint discountAmount = totalPrice_1 * discountPercent / 100;\r\n            uint loyaltydiscount = totalPrice_1 * Point /100;\r\n            totalPrice_1 -= discountAmount ;\r\n            totalPrice_1 -= loyaltydiscount;           \r\n        }\r\n     //   require(fastcoinContract.approve(address(this), totalPrice), \"Approval failed\");\r\n     //   require(fastcoinContract.approve(msg.sender, totalPrice), \"Approval failed\");\r\n\r\n        // Pay for the order\r\n       // fastcoinContract.payForOrder(totalPrice);\r\n       // require(fastcoinContract.approve(address(this), totalPrice_1+20), \"Approval failed\");\r\n        require(fastcoinContract.transferFrom(msg.sender, address(this), totalPrice_1), \"Payment failed\");\r\n        orders[nextOrderId] = Order(nextOrderId, msg.sender, _itemIds, _quantities, totalPrice_1, false);\r\n        emit OrderPlaced(nextOrderId, msg.sender, _itemIds, _quantities, totalPrice_1);\r\n        nextOrderId++;\r\n    }\r\n\r\n  \r\n\r\n    function completeOrder(uint _orderId) public onlyManager {\r\n        require(_orderId < nextOrderId, \"Order does not exist\");\r\n        require(!orders[_orderId].isCompleted, \"Order is already completed\");\r\n        orders[_orderId].isCompleted = true;\r\n        emit OrderCompleted(_orderId);\r\n    }\r\n\r\n    function getOrder(uint _orderId) public view returns (Order memory) {\r\n        require(_orderId < nextOrderId, \"Order does not exist\");\r\n        return orders[_orderId];\r\n    }\r\n}\r\n",
  "sourcePath": "C:\\Users\\Lenovo\\Truffle\\contracts\\OrderProcessing.sol",
  "compiler": {
    "name": "solc",
    "version": "0.8.7+commit.e28d00a7.Emscripten.clang"
  },
  "schemaVersion": "3.4.16",
  "updatedAt": "2024-01-13T19:36:48.319Z",
  "networkType": "ethereum",
  "devdoc": {
    "kind": "dev",
    "methods": {},
    "version": 1
  },
  "userdoc": {
    "kind": "user",
    "methods": {},
    "version": 1
  }
}