{
  "contractName": "PromotionsAndDiscounts",
  "abi": [
    {
      "inputs": [],
      "stateMutability": "nonpayable",
      "type": "constructor"
    },
    {
      "anonymous": false,
      "inputs": [
        {
          "indexed": false,
          "internalType": "uint256",
          "name": "id",
          "type": "uint256"
        },
        {
          "indexed": false,
          "internalType": "string",
          "name": "description",
          "type": "string"
        },
        {
          "indexed": false,
          "internalType": "uint256",
          "name": "discountPercent",
          "type": "uint256"
        },
        {
          "indexed": false,
          "internalType": "uint256",
          "name": "validUntil",
          "type": "uint256"
        }
      ],
      "name": "DiscountAdded",
      "type": "event"
    },
    {
      "anonymous": false,
      "inputs": [
        {
          "indexed": false,
          "internalType": "uint256",
          "name": "id",
          "type": "uint256"
        },
        {
          "indexed": false,
          "internalType": "string",
          "name": "description",
          "type": "string"
        },
        {
          "indexed": false,
          "internalType": "uint256",
          "name": "dsicountPercent",
          "type": "uint256"
        },
        {
          "indexed": false,
          "internalType": "bool",
          "name": "isActive",
          "type": "bool"
        }
      ],
      "name": "DiscountItemGet",
      "type": "event"
    },
    {
      "anonymous": false,
      "inputs": [
        {
          "indexed": false,
          "internalType": "uint256",
          "name": "id",
          "type": "uint256"
        },
        {
          "indexed": false,
          "internalType": "bool",
          "name": "isActive",
          "type": "bool"
        }
      ],
      "name": "DiscountUpdated",
      "type": "event"
    },
    {
      "inputs": [
        {
          "internalType": "uint256",
          "name": "",
          "type": "uint256"
        }
      ],
      "name": "discounts",
      "outputs": [
        {
          "internalType": "uint256",
          "name": "id",
          "type": "uint256"
        },
        {
          "internalType": "string",
          "name": "description",
          "type": "string"
        },
        {
          "internalType": "uint256",
          "name": "discountPercent",
          "type": "uint256"
        },
        {
          "internalType": "uint256",
          "name": "validUntil",
          "type": "uint256"
        },
        {
          "internalType": "bool",
          "name": "isActive",
          "type": "bool"
        }
      ],
      "stateMutability": "view",
      "type": "function",
      "constant": true
    },
    {
      "inputs": [],
      "name": "nextDiscountId",
      "outputs": [
        {
          "internalType": "uint256",
          "name": "",
          "type": "uint256"
        }
      ],
      "stateMutability": "view",
      "type": "function",
      "constant": true
    },
    {
      "inputs": [],
      "name": "owner",
      "outputs": [
        {
          "internalType": "address",
          "name": "",
          "type": "address"
        }
      ],
      "stateMutability": "view",
      "type": "function",
      "constant": true
    },
    {
      "inputs": [
        {
          "internalType": "string",
          "name": "_description",
          "type": "string"
        },
        {
          "internalType": "uint256",
          "name": "_discountPercent",
          "type": "uint256"
        },
        {
          "internalType": "uint256",
          "name": "_validUntil",
          "type": "uint256"
        }
      ],
      "name": "addDiscount",
      "outputs": [],
      "stateMutability": "nonpayable",
      "type": "function"
    },
    {
      "inputs": [
        {
          "internalType": "uint256",
          "name": "_id",
          "type": "uint256"
        },
        {
          "internalType": "bool",
          "name": "_isActive",
          "type": "bool"
        }
      ],
      "name": "updateDiscountStatus",
      "outputs": [],
      "stateMutability": "nonpayable",
      "type": "function"
    },
    {
      "inputs": [
        {
          "internalType": "uint256",
          "name": "_id",
          "type": "uint256"
        }
      ],
      "name": "getDiscount",
      "outputs": [
        {
          "internalType": "uint256",
          "name": "",
          "type": "uint256"
        },
        {
          "internalType": "string",
          "name": "",
          "type": "string"
        },
        {
          "internalType": "uint256",
          "name": "",
          "type": "uint256"
        },
        {
          "internalType": "uint256",
          "name": "",
          "type": "uint256"
        },
        {
          "internalType": "bool",
          "name": "",
          "type": "bool"
        }
      ],
      "stateMutability": "nonpayable",
      "type": "function"
    }
  ],
  "bytecode": "0x608060405234801561001057600080fd5b50600080546001600160a01b0319163317905561098e806100326000396000f3fe608060405234801561001057600080fd5b50600436106100625760003560e01c80632336dbe41461006757806363883357146100945780636eab50f8146100a95780638da5cb5b146100bc578063afd36216146100e7578063bae6a690146100fe575b600080fd5b61007a610075366004610768565b610111565b60405161008b9594939291906108a6565b60405180910390f35b6100a76100a23660046106a4565b6102c1565b005b6100a76100b7366004610781565b61047f565b6000546100cf906001600160a01b031681565b6040516001600160a01b03909116815260200161008b565b6100f060025481565b60405190815260200161008b565b61007a61010c366004610768565b610550565b600060606000806000600254861061016a5760405162461bcd60e51b8152602060048201526017602482015276111a5cd8dbdd5b9d08191bd95cc81b9bdd08195e1a5cdd604a1b60448201526064015b60405180910390fd5b6000868152600160208181526040808420815160a0810190925280548252928301805491939284019161019c906108de565b80601f01602080910402602001604051908101604052809291908181526020018280546101c8906108de565b80156102155780601f106101ea57610100808354040283529160200191610215565b820191906000526020600020905b8154815290600101906020018083116101f857829003601f168201915b5050505050815260200160028201548152602001600382015481526020016004820160009054906101000a900460ff16151515158152505090507f906f2538b9cdc989a34f67e5e3aa7fa4b42a1f93f467559eab6cf9bf17cfa55481600001518260200151836040015184608001516040516102949493929190610849565b60405180910390a18051602082015160408301516060909301519199909850919650945060019350915050565b6000546001600160a01b031633146102eb5760405162461bcd60e51b815260040161016190610803565b6000821180156102fc575060648211155b6103485760405162461bcd60e51b815260206004820152601860248201527f496e76616c696420646973636f756e742070657263656e7400000000000000006044820152606401610161565b4281116103975760405162461bcd60e51b815260206004820152601760248201527f496e76616c69642065787069726174696f6e2074696d650000000000000000006044820152606401610161565b6040805160a0810182526002548082526020808301878152838501879052606084018690526001608085018190526000938452808352949092208351815591518051939492936103ee93850192919091019061060b565b50604082015181600201556060820151816003015560808201518160040160006101000a81548160ff0219169083151502179055509050507f987ff97da248f4b4038da5e19e31269349da34110289e5f3bf88342530e56a6260025484848460405161045d949392919061087a565b60405180910390a16002805490600061047583610919565b9190505550505050565b6000546001600160a01b031633146104a95760405162461bcd60e51b815260040161016190610803565b60025482106104f45760405162461bcd60e51b8152602060048201526017602482015276111a5cd8dbdd5b9d08191bd95cc81b9bdd08195e1a5cdd604a1b6044820152606401610161565b600082815260016020908152604091829020600401805460ff19168415159081179091558251858152918201527f25873af899e085068a2476e025f5a0e627eb01a121cb52eedc96edae6e98db19910160405180910390a15050565b600160208190526000918252604090912080549181018054610571906108de565b80601f016020809104026020016040519081016040528092919081815260200182805461059d906108de565b80156105ea5780601f106105bf576101008083540402835291602001916105ea565b820191906000526020600020905b8154815290600101906020018083116105cd57829003601f168201915b50505050600283015460038401546004909401549293909290915060ff1685565b828054610617906108de565b90600052602060002090601f016020900481019282610639576000855561067f565b82601f1061065257805160ff191683800117855561067f565b8280016001018555821561067f579182015b8281111561067f578251825591602001919060010190610664565b5061068b92915061068f565b5090565b5b8082111561068b5760008155600101610690565b6000806000606084860312156106b957600080fd5b833567ffffffffffffffff808211156106d157600080fd5b818601915086601f8301126106e557600080fd5b8135818111156106f7576106f7610942565b604051601f8201601f19908116603f0116810190838211818310171561071f5761071f610942565b8160405282815289602084870101111561073857600080fd5b82602086016020830137600060208483010152809750505050505060208401359150604084013590509250925092565b60006020828403121561077a57600080fd5b5035919050565b6000806040838503121561079457600080fd5b82359150602083013580151581146107ab57600080fd5b809150509250929050565b6000815180845260005b818110156107dc576020818501810151868301820152016107c0565b818111156107ee576000602083870101525b50601f01601f19169290920160200192915050565b60208082526026908201527f4f6e6c7920746865206f776e65722063616e20706572666f726d20746869732060408201526530b1ba34b7b760d11b606082015260800190565b84815260806020820152600061086260808301866107b6565b60408301949094525090151560609091015292915050565b84815260806020820152600061089360808301866107b6565b6040830194909452506060015292915050565b85815260a0602082015260006108bf60a08301876107b6565b6040830195909552506060810192909252151560809091015292915050565b600181811c908216806108f257607f821691505b6020821081141561091357634e487b7160e01b600052602260045260246000fd5b50919050565b600060001982141561093b57634e487b7160e01b600052601160045260246000fd5b5060010190565b634e487b7160e01b600052604160045260246000fdfea2646970667358221220934f4d68d68863b82c7d956c222f3f92649dc4d58e0c39434d489edad2aae91a64736f6c63430008070033",
  "immutableReferences": {},
  "source": "// SPDX-License-Identifier: MIT\r\npragma solidity ^0.8.7;\r\ncontract PromotionsAndDiscounts {\r\n    address public owner;\r\n    mapping(uint => Discount) public discounts;\r\n    uint public nextDiscountId;\r\n\r\n    struct Discount {\r\n        uint id;\r\n        string description;\r\n        uint discountPercent;\r\n        uint validUntil;\r\n        bool isActive;\r\n    }\r\n\r\n    event DiscountAdded(uint id, string description, uint discountPercent, uint validUntil);\r\n    event DiscountUpdated(uint id, bool isActive);\r\n     event DiscountItemGet(uint id,string description,uint dsicountPercent,bool isActive);\r\n\r\n    constructor() {\r\n        owner = msg.sender;\r\n    }\r\n\r\n    modifier onlyOwner() {\r\n        require(msg.sender == owner, \"Only the owner can perform this action\");\r\n        _;\r\n    }\r\n\r\n    function addDiscount(string memory _description, uint _discountPercent, uint _validUntil) public onlyOwner {\r\n    require(_discountPercent > 0 && _discountPercent <= 100, \"Invalid discount percent\");\r\n    require(_validUntil > block.timestamp, \"Invalid expiration time\");\r\n\r\n    discounts[nextDiscountId] = Discount(nextDiscountId, _description, _discountPercent, _validUntil, true);\r\n    emit DiscountAdded(nextDiscountId, _description, _discountPercent, _validUntil);\r\n    nextDiscountId++;\r\n\r\n    }\r\n\r\n    function updateDiscountStatus(uint _id, bool _isActive) public onlyOwner {\r\n        require(_id < nextDiscountId, \"Discount does not exist\");\r\n        discounts[_id].isActive = _isActive;\r\n        emit DiscountUpdated(_id, _isActive);\r\n    }\r\n\r\n    function getDiscount(uint _id) public returns (uint,string memory,uint,uint,bool) {\r\n        require(_id < nextDiscountId, \"Discount does not exist\");\r\n        Discount memory disc = discounts[_id];\r\n        emit DiscountItemGet(disc.id, disc.description, disc.discountPercent, disc.isActive);\r\n        return (disc.id, disc.description, disc.discountPercent,disc.validUntil,true);\r\n       \r\n    }\r\n}\r\n",
  "sourcePath": "C:\\Users\\Lenovo\\Truffle\\contracts\\PromotionsAndDiscounts.sol",
  "compiler": {
    "name": "solc",
    "version": "0.8.7+commit.e28d00a7.Emscripten.clang"
  },
  "schemaVersion": "3.4.16",
  "updatedAt": "2024-01-12T16:34:22.547Z",
  "networkType": "ethereum",
  "devdoc": {
    "kind": "dev",
    "methods": {},
    "version": 1
  },
  "userdoc": {
    "kind": "user",
    "methods": {},
    "version": 1
  }
}