{
  "contractName": "PromotionsAndDiscounts",
  "abi": [
    {
      "inputs": [],
      "stateMutability": "nonpayable",
      "type": "constructor"
    },
    {
      "anonymous": false,
      "inputs": [
        {
          "indexed": false,
          "internalType": "uint256",
          "name": "id",
          "type": "uint256"
        },
        {
          "indexed": false,
          "internalType": "string",
          "name": "description",
          "type": "string"
        },
        {
          "indexed": false,
          "internalType": "uint256",
          "name": "discountPercent",
          "type": "uint256"
        },
        {
          "indexed": false,
          "internalType": "uint256",
          "name": "validUntil",
          "type": "uint256"
        }
      ],
      "name": "DiscountAdded",
      "type": "event"
    },
    {
      "anonymous": false,
      "inputs": [
        {
          "indexed": false,
          "internalType": "uint256",
          "name": "id",
          "type": "uint256"
        },
        {
          "indexed": false,
          "internalType": "bool",
          "name": "isActive",
          "type": "bool"
        }
      ],
      "name": "DiscountUpdated",
      "type": "event"
    },
    {
      "inputs": [
        {
          "internalType": "uint256",
          "name": "",
          "type": "uint256"
        }
      ],
      "name": "discounts",
      "outputs": [
        {
          "internalType": "uint256",
          "name": "id",
          "type": "uint256"
        },
        {
          "internalType": "string",
          "name": "description",
          "type": "string"
        },
        {
          "internalType": "uint256",
          "name": "discountPercent",
          "type": "uint256"
        },
        {
          "internalType": "uint256",
          "name": "validUntil",
          "type": "uint256"
        },
        {
          "internalType": "bool",
          "name": "isActive",
          "type": "bool"
        }
      ],
      "stateMutability": "view",
      "type": "function",
      "constant": true
    },
    {
      "inputs": [],
      "name": "nextDiscountId",
      "outputs": [
        {
          "internalType": "uint256",
          "name": "",
          "type": "uint256"
        }
      ],
      "stateMutability": "view",
      "type": "function",
      "constant": true
    },
    {
      "inputs": [],
      "name": "owner",
      "outputs": [
        {
          "internalType": "address",
          "name": "",
          "type": "address"
        }
      ],
      "stateMutability": "view",
      "type": "function",
      "constant": true
    },
    {
      "inputs": [
        {
          "internalType": "string",
          "name": "_description",
          "type": "string"
        },
        {
          "internalType": "uint256",
          "name": "_discountPercent",
          "type": "uint256"
        },
        {
          "internalType": "uint256",
          "name": "_validUntil",
          "type": "uint256"
        }
      ],
      "name": "addDiscount",
      "outputs": [],
      "stateMutability": "nonpayable",
      "type": "function"
    },
    {
      "inputs": [
        {
          "internalType": "uint256",
          "name": "_id",
          "type": "uint256"
        },
        {
          "internalType": "bool",
          "name": "_isActive",
          "type": "bool"
        }
      ],
      "name": "updateDiscountStatus",
      "outputs": [],
      "stateMutability": "nonpayable",
      "type": "function"
    },
    {
      "inputs": [
        {
          "internalType": "uint256",
          "name": "_id",
          "type": "uint256"
        }
      ],
      "name": "getDiscount",
      "outputs": [
        {
          "internalType": "uint256",
          "name": "",
          "type": "uint256"
        },
        {
          "internalType": "string",
          "name": "",
          "type": "string"
        },
        {
          "internalType": "uint256",
          "name": "",
          "type": "uint256"
        },
        {
          "internalType": "uint256",
          "name": "",
          "type": "uint256"
        },
        {
          "internalType": "bool",
          "name": "",
          "type": "bool"
        }
      ],
      "stateMutability": "view",
      "type": "function",
      "constant": true
    }
  ],
  "bytecode": "0x608060405234801561001057600080fd5b50600080546001600160a01b031916331790556108d7806100326000396000f3fe608060405234801561001057600080fd5b50600436106100625760003560e01c80632336dbe41461006757806363883357146100945780636eab50f8146100a95780638da5cb5b146100bc578063afd36216146100e7578063bae6a690146100fe575b600080fd5b61007a6100753660046106e2565b610111565b60405161008b9594939291906107ef565b60405180910390f35b6100a76100a236600461061e565b61023b565b005b6100a76100b73660046106fb565b6103f9565b6000546100cf906001600160a01b031681565b6040516001600160a01b03909116815260200161008b565b6100f060025481565b60405190815260200161008b565b61007a61010c3660046106e2565b6104ca565b600060606000806000600254861061016a5760405162461bcd60e51b8152602060048201526017602482015276111a5cd8dbdd5b9d08191bd95cc81b9bdd08195e1a5cdd604a1b60448201526064015b60405180910390fd5b60008681526001602081905260409091208054600282015460038301546004840154939094018054929490939192909160ff169084906101a990610827565b80601f01602080910402602001604051908101604052809291908181526020018280546101d590610827565b80156102225780601f106101f757610100808354040283529160200191610222565b820191906000526020600020905b81548152906001019060200180831161020557829003601f168201915b50989f939e50959c50939a509198509650505050505050565b6000546001600160a01b031633146102655760405162461bcd60e51b81526004016101619061077d565b600082118015610276575060648211155b6102c25760405162461bcd60e51b815260206004820152601860248201527f496e76616c696420646973636f756e742070657263656e7400000000000000006044820152606401610161565b4281116103115760405162461bcd60e51b815260206004820152601760248201527f496e76616c69642065787069726174696f6e2074696d650000000000000000006044820152606401610161565b6040805160a081018252600254808252602080830187815283850187905260608401869052600160808501819052600093845280835294909220835181559151805193949293610368938501929190910190610585565b50604082015181600201556060820151816003015560808201518160040160006101000a81548160ff0219169083151502179055509050507f987ff97da248f4b4038da5e19e31269349da34110289e5f3bf88342530e56a626002548484846040516103d794939291906107c3565b60405180910390a1600280549060006103ef83610862565b9190505550505050565b6000546001600160a01b031633146104235760405162461bcd60e51b81526004016101619061077d565b600254821061046e5760405162461bcd60e51b8152602060048201526017602482015276111a5cd8dbdd5b9d08191bd95cc81b9bdd08195e1a5cdd604a1b6044820152606401610161565b600082815260016020908152604091829020600401805460ff19168415159081179091558251858152918201527f25873af899e085068a2476e025f5a0e627eb01a121cb52eedc96edae6e98db19910160405180910390a15050565b6001602081905260009182526040909120805491810180546104eb90610827565b80601f016020809104026020016040519081016040528092919081815260200182805461051790610827565b80156105645780601f1061053957610100808354040283529160200191610564565b820191906000526020600020905b81548152906001019060200180831161054757829003601f168201915b50505050600283015460038401546004909401549293909290915060ff1685565b82805461059190610827565b90600052602060002090601f0160209004810192826105b357600085556105f9565b82601f106105cc57805160ff19168380011785556105f9565b828001600101855582156105f9579182015b828111156105f95782518255916020019190600101906105de565b50610605929150610609565b5090565b5b80821115610605576000815560010161060a565b60008060006060848603121561063357600080fd5b833567ffffffffffffffff8082111561064b57600080fd5b818601915086601f83011261065f57600080fd5b8135818111156106715761067161088b565b604051601f8201601f19908116603f011681019083821181831017156106995761069961088b565b816040528281528960208487010111156106b257600080fd5b82602086016020830137600060208483010152809750505050505060208401359150604084013590509250925092565b6000602082840312156106f457600080fd5b5035919050565b6000806040838503121561070e57600080fd5b823591506020830135801515811461072557600080fd5b809150509250929050565b6000815180845260005b818110156107565760208185018101518683018201520161073a565b81811115610768576000602083870101525b50601f01601f19169290920160200192915050565b60208082526026908201527f4f6e6c7920746865206f776e65722063616e20706572666f726d20746869732060408201526530b1ba34b7b760d11b606082015260800190565b8481526080602082015260006107dc6080830186610730565b6040830194909452506060015292915050565b85815260a06020820152600061080860a0830187610730565b6040830195909552506060810192909252151560809091015292915050565b600181811c9082168061083b57607f821691505b6020821081141561085c57634e487b7160e01b600052602260045260246000fd5b50919050565b600060001982141561088457634e487b7160e01b600052601160045260246000fd5b5060010190565b634e487b7160e01b600052604160045260246000fdfea2646970667358221220762921bcf560bfa22dc72cd41a1e1280bcfceeae53079330b20e6d204ad6026064736f6c63430008070033",
  "immutableReferences": {},
  "source": "// SPDX-License-Identifier: MIT\r\npragma solidity ^0.8.7;\r\ncontract PromotionsAndDiscounts {\r\n    address public owner;\r\n    mapping(uint => Discount) public discounts;\r\n    uint public nextDiscountId;\r\n\r\n    struct Discount {\r\n        uint id;\r\n        string description;\r\n        uint discountPercent;\r\n        uint validUntil;\r\n        bool isActive;\r\n    }\r\n\r\n    event DiscountAdded(uint id, string description, uint discountPercent, uint validUntil);\r\n    event DiscountUpdated(uint id, bool isActive);\r\n\r\n    constructor() {\r\n        owner = msg.sender;\r\n    }\r\n\r\n    modifier onlyOwner() {\r\n        require(msg.sender == owner, \"Only the owner can perform this action\");\r\n        _;\r\n    }\r\n\r\n    function addDiscount(string memory _description, uint _discountPercent, uint _validUntil) public onlyOwner {\r\n    require(_discountPercent > 0 && _discountPercent <= 100, \"Invalid discount percent\");\r\n    require(_validUntil > block.timestamp, \"Invalid expiration time\");\r\n\r\n    discounts[nextDiscountId] = Discount(nextDiscountId, _description, _discountPercent, _validUntil, true);\r\n    emit DiscountAdded(nextDiscountId, _description, _discountPercent, _validUntil);\r\n    nextDiscountId++;\r\n\r\n    }\r\n\r\n    function updateDiscountStatus(uint _id, bool _isActive) public onlyOwner {\r\n        require(_id < nextDiscountId, \"Discount does not exist\");\r\n        discounts[_id].isActive = _isActive;\r\n        emit DiscountUpdated(_id, _isActive);\r\n    }\r\n\r\n    function getDiscount(uint _id) public view returns (uint,string memory,uint,uint,bool) {\r\n        require(_id < nextDiscountId, \"Discount does not exist\");\r\n        return (discounts[_id].id,discounts[_id].description,discounts[_id].discountPercent,discounts[_id].validUntil,discounts[_id].isActive);\r\n    }\r\n}\r\n",
  "sourcePath": "C:\\Users\\Lenovo\\Truffle\\contracts\\PromotionsAndDiscounts.sol",
  "compiler": {
    "name": "solc",
    "version": "0.8.7+commit.e28d00a7.Emscripten.clang"
  },
  "schemaVersion": "3.4.16",
  "updatedAt": "2024-01-07T18:09:47.305Z",
  "networkType": "ethereum",
  "devdoc": {
    "kind": "dev",
    "methods": {},
    "version": 1
  },
  "userdoc": {
    "kind": "user",
    "methods": {},
    "version": 1
  }
}